:020000040000FA
:10000000B0F1FF1F650100006F01000071010000E9
:1000100000000000000000000000000000000000E0
:10002000000000000000000000000000730100005C
:1000300000000000000000007501000077010000D2
:1000400079010000790100007901000079010000C8
:1000500079010000790100007901000079010000B8
:1000600079010000790100007901000079010000A8
:100070007901000079010000790100004D100000B5
:100080007901000079010000790100004D150000A0
:1000900079010000790100008D1100007901000054
:1000A0007901000079010000790100007901000068
:1000B000790100007901000099120000D9120000B6
:1000C00000F002F800F03EF80CA030C80838241800
:1000D0002D18671EA246AB4654465D46AC4201D180
:1000E00000F030F87E460F3EB6460FCC0126334274
:1000F00000D0FB1A3343A246AB461847EC21000060
:100100000C220000103A02D378C878C1FAD85207FE
:1001100001D330C830C101D504680C6070470000BD
:100120000023002400250026103A01D378C1FBD813
:10013000520700D330C100D50B6070471FB51FBDFB
:1001400010B510BD00F00AFF1146FFF7F7FF01F0F0
:100150003FFC00F041F903B4FFF7F2FF03BC00F0ED
:100160006FFF00000848804762B608480047FEE776
:10017000FEE7FEE7FEE7FEE70548004705480649BB
:10018000044A064B7047000065140000C1000000DF
:1001900079010000B0F0FF1FB0F1FF1FB0F0FF1FAA
:1001A00070477047704700000346CA02400D10B503
:1001B00010430A1504D00124E4072043002A05DB7C
:1001C0000A4CA21A04D4D040FF2A00DD002010BD42
:1001D0004A00002B01D0012000E00020101801226D
:1001E0005205D042F2D8C817C04310BD1E0400000B
:1001F0001F22030C02D10F22000402D0030E03D0F1
:1002000004E00020014670470002083A030F01D1C4
:100210000001121F830F01D18000921E002801DB14
:100220004000521E120551184205C01241181046D6
:100230007047C10FC90700D0404201229207114305
:10024000D6E701218907D3E7F0B5FF252D04C609BC
:10025000C209FF2704462E400137CB093E434840E0
:100260002A402B400746002A6BD0002B69D0AA42B7
:1002700067D0AB4265D0002800DA32460125ED0593
:1002800029432C4309022002090AD21A4B0C7F246D
:10029000E31A434C000A7C44E35C7D2424041219D5
:1002A00014145B00A218884201D3521C00E04000E5
:1002B00049420C465C4324115C43DB016415E3189E
:1002C000040A5C43C502200D0C4644436419250A08
:1002D0005D432303EC0C0D46654300030019EB1846
:1002E0004C42A34201D35B18401CD4052018002BBC
:1002F00007D05B00C91804D3401C002901D1400875
:1003000040003F2189048A4209D3002A08DC1106F3
:10031000090F04D0032149074018C00FC007F0BDE2
:1003200001224100120689187F2252069142F6D21C
:1003300005214907C84201D59010F0BDFF20C00536
:10034000F0BD002F00DA32461648AA4207D2AB426F
:1003500005D21902090E17D0F80FC007F0BDFF250E
:1003600063002D06AB42F9D84900A942F6D8AB424A
:1003700001D1A942F2D0A94201D1002101E06100DE
:100380004908D0050843F0BD1102090EFBD0FF203B
:100390000243D005F0BD0A460146104654E700006E
:1003A0000E2000000000C07F0102C21504D001230E
:1003B000DB071943002A0ADB9E239A1A02D4084657
:1003C000D0407047FF2241001206914201D900201F
:1003D0007047C017C043704710B50446C046C046BA
:1003E0002046FFF7B8FE10BD10B500200249029A62
:1003F00000F0F6FD10BD00000000F87F704700001F
:10040000FFFFFFFFFFFFFFFFFFFFFFFFFEFFFFFFFD
:10041000F0B50C46871A9C410D46861A9D4103D2C1
:10042000C01BA141D21963410D0D1F0DC94EEC1B1C
:10043000AE435CD07F057F0D0026002F51D02D05E7
:10044000AC46A943DD020123ED0A1B051D43202311
:100450001B1B24D41746E740381871412F46E7404C
:10046000CC199D402818314661410C0D27D16144BB
:100470009A4013D50023401C594152000ED1400828
:10048000400001224B005205D34207D3052040070C
:10049000C14201D5B04900E0B0493046F0BD6B0023
:1004A000002A00D001229A181F23203C1B1B01D5D3
:1004B000002302E0E540281871410C0DD7D001243B
:1004C00024050919C407CD0740084908E40F28434B
:1004D0006144002CD5D00024401C61419A40D0D109
:1004E000CDE76A05520DD9D1C90FC907D5E79C4D93
:1004F0004E00002801D0012400E0002434195F00E0
:10050000002A01D0012600E00026BE19954FAC421A
:100510000CD8AE420AD8B44206D001256D05EC4293
:10052000BCD010461946F0BD9942FCD00020394697
:10053000F0BDF0B51FB40C460F46811A9F41254609
:10054000861A9D4106D20125ED076F40401ABC4135
:1005500052187B41210D1E0D8D1BAC467D4D8D43E8
:100560007ED075056D0D7CD00D05AE46AC431B03EA
:100570001B0B794D52429D41202366469B1B14D391
:100580001746F740381800260090744160462F4601
:100590000741E41900989D402818664116D4714619
:1005A00071189A4025D5012320E093182A466A4104
:1005B0005200002B00D0521C1E23203E9B1B002B00
:1005C00061DD3541EE1728186641E8D500187641FF
:1005D0005B1C9A4000D3401C4B05F3181524E340E4
:1005E00010D3002B52D071467118D30FC01802D30C
:1005F000491C05B0F0BD0123DB079A42F9D1400840
:100600004000F6E701225205B21801D1002853D06C
:100610000123CC0ADB029943891E002A08D1020C6F
:1006200003D0020C0004103902E0024600202039F9
:100630000023550B05D112020823550B01D152019D
:100640000D23550C01D112011B1DD50C01D19200B7
:100650009B1C150D01D152005B1C2025EE1A01E0F8
:100660002CE022E00546F54015439840CA1AE10700
:1006700069181305C918002ABBDA032040070818B7
:10068000C10FC9070FE071466118B2E7F1074008D2
:100690000843711071444A000CD001235B059A4253
:1006A000A7D2C90FC9070020A3E74905490D26D1E4
:1006B000002001E00028F4D100219AE7284D6600CF
:1006C000002801D0012100E0002171185F00002AFC
:1006D00001D0012600E00026BE19224FA94210D801
:1006E000AE420ED8B14208D001256D05E94206D0D0
:1006F0001946A802414010467BE79C4201D02146A2
:1007000077E70020394674E710B50C465C4005D504
:100710000124E4076340FFF70CFF10BDFFF778FEEC
:1007200010BD30B40C465C4004D50124E40763409E
:1007300030BC6DE630BCFCE670B50124E4076140D6
:100740000D465D4002D4FFF763FE70BD6340FFF7C6
:10075000F0FE70BDFF0700000000F0FF0000F07F1A
:100760000000E0FF0000F87FF0B5F94D0C091E090C
:100770002C402E402F468BB0A7437DD0B543FCD0F4
:10078000002E7AD0002CFCD00D465D40ED0F2543A5
:10079000AC1BFF25AD0464190894C502440DC902C1
:1007A0002143500DDC0204430120C00701430443F0
:1007B000D2020191200C110C00958C4601042346B5
:1007C0008B430A9161460904E24D8A430991010A6B
:1007D0007D4449198039097805464D4301266D1835
:1007E000F605751B6943C90C640B891C4C436418DE
:1007F000B5012C1B250C2E04B4434C434D43210C56
:10080000691889090591009DE90701D00121C907EF
:1008100004912C4601996708CD072F434C08059D8C
:10082000E10B4D432D0C29466646754302950D4656
:1008300045432E46029D7D1BB44100950D465D4308
:1008400001942C0C2F040D465543AE462D0C3D4310
:10085000029503947546049C2D04641B049406D2EF
:10086000029C039D641C002675410395029401AC13
:1008700070CC009F7D1B01E03EE162E1B4410904C0
:100880000095079101940599A4086143090C0C4651
:100890004443650BE7040C4666467443A646640B66
:1008A0003C43039502947446049DE4042C1B049479
:1008B00006D2029C039D641C002675410395029498
:1008C00001AC70CC009F7D1BB44101940C465C438D
:1008D0000095650FE7000C465443A646640F3C4361
:1008E000039502947446049DE4002C1B049406D2E4
:1008F000029C039D641C002675410395029401AC83
:1009000070CC009F7D1BB441AE09AF06049DC900A9
:10091000AD092F43049DA406AD060495079D3443FD
:1009200069180791059DE10B4D432D0C294666463C
:10093000754302950D4645432E46029D7D1BB441ED
:1009400000950D465D4301942C0C2F040D46554334
:10095000AE462D0C3D43029503947546049C2D0430
:10096000641B049406D2029C039D641C00267541FE
:100970000395029401AC70CC009F7D1BB44101949F
:100980008C050694079C890A611800950791019CC3
:100990000599A4086143090C0D464543680BEF0413
:1009A0000D46644665436C0B3C43049FED047D1B80
:1009B000AC4602D20025641C6841009E019D371B95
:1009C00085410846584301950C46460FC5005443DF
:1009D000600F28436546E4002C1B02D20025401C12
:1009E0006E41019D3F1AB5412846BD098006284346
:1009F0008446A009BF064E020699A406761807434E
:100A0000079D002068410A99079019430020099B1F
:100A100000906046FF1913434041E20F64003A43DF
:100A2000A4460446D71A8C41A04203D90120009065
:100A300020463A46C70F941840416246D20F2243DF
:100A4000644664000494009CBE466400D71AA44621
:100A5000044602978C417746002F01D1A04204D969
:100A60006046401C8446029A2046C40FA64694184D
:100A70004041049A0546D20F224364466400D31ACB
:100A80008D417146002901D1A84202D928461A4653
:100A9000641C10430122002800D01643610200208C
:100AA000079B891904465C410223002C02DB49188C
:100AB00013466441089DCE0A2D145D194B05670548
:100AC000E10A2C050D1908993E43C9076940002B1E
:100AD00008D0934006D30022761C5141002B01D14F
:100AE000760876001C4A002D43DB154241D0AA430C
:100AF0003FD030460BB0F0BD06180D464D41174CA7
:100B00007642AC411AD395181C465C41134A6D429B
:100B1000A24113D3012252054C00D4420AD15C00F9
:100B2000D4420BD04B4002D592021143E2E7490078
:100B30004908DFE75940C90FC90718E000200849F4
:100B4000D8E7054801420DD10342F7D0F2E7000093
:100B50000000FF07541A00000000F07F0000E0FFD3
:100B60000000F87F114859400143C0124140002065
:100B7000C0E70123089A9B069A4205DC032252072C
:100B80008918C90FC907B5E7052252078918074A0E
:100B90001143D2125140ADE770B515461C460246CE
:100BA0000B4628462146FFF7DFFD70BDFFFFFF7FA4
:100BB000F0B58B4C0F09254689B0BD437BD01D098C
:100BC0002646AE43FAD00E465E402740F60F3E431F
:100BD000254071D024012142FBD0FF24AD19A4048B
:100BE0002D1B039501252D05DB02DB0AC9022B43D2
:100BF000C90A29431E010901040F130F05012143EE
:100C00001701880B820391432D098C46A90B1E43C3
:100C10008A039543B30B9A0396433F09BA0B940397
:100C2000A74302962E467E430497B6464E19D7191F
:100C30000C460196544305977E43371B7646BF1BEF
:100C40003601B646BE0B361900967646BC043719F7
:100C5000009C01D3641C00946400002F01D0012685
:100C60003443029E049F754366467E430496760095
:100C700034196E0034190094029C019E1C196643BD
:100C8000751BAE46069465464519059C05956C4353
:100C9000594375460891691A0191049E01465143D2
:100CA000A41B0491611A009C0791E10605D061091B
:100CB0000122114302E072E06EE06109089D002705
:100CC0002C0A2D066918049D7C412A0A2D066918F4
:100CD000019D6241AC0DAD026D185441079A910D12
:100CE000920255196141029A644658435443069B47
:100CF000059A5A43121A131B9A0E9B015B187A41EC
:100D0000010B0005C3185141220A200644195A411B
:100D10009A4200D2491C01204002814203D315238C
:100D20000226F64302E014230326F6432020C51AC8
:100D3000A9401746AF40DA400A4320460399D840FD
:100D40000914731819055118039A3843D2075140F2
:100D5000AC4009D00122944006D30022401C5141EE
:100D6000002C01D1400840001E4A934212D30122B8
:100D700003989206904207DB0520400709181A489D
:100D80000143C012414004E0032040070818C10F8E
:100D9000C907002009B0F0BD0020F107FAE70518E7
:100DA0000C464C4111486D42A04115D394181A4687
:100DB0005A410E48644290410ED301204A0040053A
:100DC000824209D35A00824206D35940C90F084AC9
:100DD000C90700201143DDE700200649DAE70000DB
:100DE0000000FF07FE070000FFFFFF7F0000E0FF9D
:100DF0000000F07F0000F87F1F22030C02D10F22B9
:100E000000041CD0030E01D10002083A030F01D1E7
:100E10000001121F830F01D18000921E002801DB08
:100E20004000521ED205511802125118192290404A
:100E300004D3491C002801D14908490008467047DD
:100E4000C10FC90700D04042012292071143D3E7E6
:100E500001218907D0E70000F8B5264C4E00069D19
:100E6000A6420AD8A64201D1002806D15E00A642B9
:100E700003D8A6420AD1002A08D00D242404254212
:100E800033D02946002000F088F8F8BD0C461C43FA
:100E900011D4994207D0C81A02D3EFF30080F8BDED
:100EA000EFF30080F8BD801A02D3EFF30080F8BDA5
:100EB000EFF30080F8BD09242407E5008B4207D03A
:100EC000581A02D3EFF3008006E0EFF3008007E04A
:100ED000101A03D3EFF30080A04303E0EFF3008088
:100EE000A043284380F30088F8BD0095FFF77CFA03
:100EF000F8BD00000000E0FF10B5FF231B06440012
:100F00009C421DD84C009C421AD80346124A0B43FF
:100F100007D4401A02D3EFF3008010BDEFF3008036
:100F200010BD081A03D3EFF30080904305E0EFF300
:100F3000008001219043C907084380F3008810BD59
:100F40000D231B041A4204D01146002000F025F89E
:100F500010BD00F039F810BD00000090754600F09B
:100F60003BF8AE46050069465346C008C0008546BA
:100F700018B020B5FFF702F960BCB646002600277E
:100F8000C0C5C0C5C0C5C0C5C0C5C0C5C0C5C0C539
:100F9000403D490849008D467047C80212D54803B4
:100FA000400F002804D0C803C04301218840704787
:100FB000EFF300800001000903210907084380F3D3
:100FC000008870470020704710B5024800F008F80C
:100FD00010BD00000000C07F0048704718F0FF1FE0
:100FE00010B50C461107090F092904D00A290AD0A7
:100FF00008290CD104E011460820FFF7CEFF06E0D7
:10100000510606D501E0510601D50120C007214651
:1010100010BDD10607D501010909CC084907000E0A
:101020000006044309E0410F20024907000A01437A
:10103000200E00061D22D14101430846E7E70000CB
:1010400001491820ABBEFEE72600020010B58C480F
:10105000016840229143016000698C490A68FF2AB7
:101060000FD80A68262A0CD30A68D92A09D8894ACF
:101070001378C4B29C4204D209684908814B1970A4
:10108000107010BD70B50120820236490B1F1C681C
:1010900014431C6003221202334B1C6814431C606F
:1010A00004020D6825430D604D6825434D60CD68F1
:1010B0002543CD60DC691443DC610A6802231A43CE
:1010C0000A604A681A434A60CA681A43CA60274AD3
:1010D000136808210B43136013680424234313602F
:1010E000136820252B4313601346103B1E680E43E4
:1010F0001E601E6826431E600C3A13682B43136063
:101100001B4A136805261E4316601A4B1E682643A9
:101110001E60EC431568254015601D6825401D6064
:1011200000245460144D95605C60144D9D6028252A
:10113000DD60D5615561C006114D2E6806432E60F5
:10114000092000060F4D2E6806432E600E481861D8
:1011500014629461106808431060186808431860AE
:1011600070BDC04608C0044014900440D4F00F4045
:101170000080034000900340A08C000060EA000063
:10118000848003408490034094110000F0B5012056
:1011900081056A4A116036490A46103A1368DB072E
:1011A00015D10A68D20711D0384A1368DB0702D17B
:1011B000334B48241C600B6803400B602E48416889
:1011C00080230B4343601068401C1060F0BD0B4649
:1011D000143B00251D600E1F3560264C2778032F19
:1011E0003DD8C0467F443F797F00BF4401161E278B
:1011F000214C80252560234D2D78234E3570241FEA
:1012000040252560214C20601A4C20700C461C3C67
:101210001F4D25601F4CFF2520E0174C241F25681B
:1012200080262E432660022405E0134C25684026C4
:101230002E43266003240F4D2C7010E00E4C2768BF
:1012400080243C430C4F3C600C461C3C0B4F2760F9
:101250000B4C4827276003243460064C2570146823
:10126000044014600A6802400A6003201860F0BD60
:101270001C71034078F0FF1F88F00F40F84609000A
:1012800000B003400DF0FF1F0CF0FF1F7CF0FF1FAC
:101290007F04000094F0FF1F70B501218807EE4A1B
:1012A0001060274800680A4C226892030FD54D044D
:1012B000FFF7CEFD244900F0F7FE064E30602068AF
:1012C000284320603068224900F02AFE306070BD5B
:1012D000A090044000F0FF1F70B50120C007DE4958
:1012E000086017480468174D2868400610D5204646
:1012F000FFF7AEFD144900F0D7FE144E30602868A9
:101300004021014329603068114900F009FE306036
:101310002868000610D52046FFF79AFD0A4900F01C
:10132000C3FE0C4C2060286880210143296020689E
:10133000074900F0F5FD206070BDC04680E200E086
:1013400004800340A0C0044017D4373C08F0FF1FBE
:101350009A9901C104F0FF1F10B501214A021748F4
:101360000368134303608A02036813430360CA02DD
:101370000368134303600A030368134303604A03CB
:101380000368134303600A064368134343604B0634
:1013900044681C4344608B0644681C434460CB068D
:1013A00044681C434460C90543680B4343603438B8
:1013B0000168114301600168016010BD388004407C
:1013C000F0B581B00E4607460022134600F0B7FC88
:1013D000002801D001B0F0BD1A4C1B4D38463146F3
:1013E00022462B4600F0C1FC0028214600D1394698
:1013F000002800D13546154E08460F46294622469C
:10140000334600F0A7FC002800D13C46002800D15C
:101410002E4600250E4B204631462A46FFF774F92A
:101420000C4B2A46FFF7C4FB0B4B2A46FFF7C0FBC9
:101430000A4B2A46FFF768F9FEF7B6FE084908602E
:1014400001B0F0BD9A9999999999D9BF9999D93FC5
:101450000000F03F0000E03F0070B7400070974090
:101460001090034070B52E49002008602D4909787E
:10147000C90707D02C490A78120703D50A78082330
:1014800013430B7029492A220A70294A29491164F9
:1014900003239904284C25680D43256001210C0481
:1014A0001568254315601B0614689C430B06E3185A
:1014B00013604B02546B1C435463204A1368204C46
:1014C000234013605368234053601E4A9070531F9B
:1014D00024241C701C4B80241C70931F9A241C70A5
:1014E0001478A407FCD51478E406FCD4D41E25781F
:1014F0001F262E402670941E2170511E08700878F9
:10150000402404430C7010784006FCD518783F2125
:101510000140197010780C2101400C29FAD170BDDE
:101520000081044000F0074002D0074000E007407F
:101530000480044000000110007004404890044002
:10154000FFF8FFFE0640064000500640F0B581B0AF
:101550000124E004F1490860EC4E7069000607D5EB
:101560003E480188491C01807069802101437161F6
:10157000306800066DD539480088FFF769FC3849A6
:1015800000F092FD374D28603068802101433160C2
:10159000354F3868296800F0DFFDE607B04333496E
:1015A00000F00FFC002824D138680024214600F008
:1015B000E7FB002805D02868214600F0E1FB002861
:1015C00004D13868296800F075F80446284D2C606D
:1015D0007F20C4052868214600F0F3FB002800D1D5
:1015E0002C602868234C214600F0D5FB002800D150
:1015F0002C601F4D28680024214600F0CCFB1E49BA
:10160000002806D10868202202430A602D68754030
:1016100004E04868202202434A602D68284621469B
:1016200000F0DCFB0028264600D12E46134D304644
:10163000294600F0BBFB002800D13546104928465A
:1016400000F032FDFEF7B0FE0E49886008600348E6
:10165000048001B0F0BDC04680E200E096F0FF1FBC
:101660007B5B563EA8F0FF1FA4F0FF1F627CAB3CE3
:101670009CF0FF1F000080BFC4F00F403333333FA6
:1016800000A00C471880034010B50D38FEF7D1FDBF
:101690000024064B2246FFF767F802460B46FFF789
:1016A00033F8034B2246FFF72FF810BD0080594056
:1016B0000000F0BFF0B581B000F04EFD0546644873
:1016C0000668056063480068314600F0EDFC01469D
:1016D0005E4F386800F024FC044638605A480168C0
:1016E000284600F0E1FC07462846314600F034FD6C
:1016F0005949096800F0D8FC0146384600F010FC52
:101700000146204600F00CFC01B0F0BDF0B5012010
:1017100002023C490B6813430B604B6813434B6058
:101720000A6802231A430A604A681A434A60364A22
:101730001168402421431160136880210B4313601A
:101740001346103B1D680D431D600C3A136823437C
:1017500013602E4A136813602D4A131F1D68A5439A
:101760001D600B24E44315682540156014680725A7
:101770002543156014680C4314601446243C256806
:101780002D06FAD515686D063AD4956A566A75190C
:10179000166AAD19D669AD199669AD195669AD19B4
:1017A0006E08C003451E2E4036189660966C576C26
:1017B000BE19176CF619D76BF619976BF619576B9C
:1017C000F61976082E403518D56015688D431560DA
:1017D00011461C3900250D60114618390D601F2176
:1017E00021601D6011680F230B401360FF21090663
:1017F000084A13688B431360734908607349086093
:10180000F0BDC04618B0044094F00F4000A0044062
:1018100024B003400CE400E0B0B51C4605460A487D
:1018200001600A480021016009480160284611460C
:1018300000F03AFC0749086020462946FEF704FDFF
:1018400005490860B0BDC04690F0FF1F84F0FF1F3F
:1018500080F0FF1F8CF0FF1F88F0FF1F8B4801688E
:101860000222914301600C48014608398A4B0B6003
:10187000016804230B400360016811430160FF20ED
:10188000000406490A6882430A60012080054E4927
:1018900008604E49086070470871034014E400E096
:1018A0000320000218490A6802430A6008680222FD
:1018B00002430A601548016807220A430260016872
:1018C000202291430160016840220A430260002106
:1018D00041600F498160052149060E4A13680B4398
:1018E000136048214161FF2109060B4A13688B43AD
:1018F00013600121C904344A1160344A116001683F
:1019000008220A43026070470CA0044000A0034074
:101910001BB7000084A0034010E400E080E200E078
:10192000B0B50120820224490C46083C23681343C9
:101930002360226802231A43226004020A682243B9
:101940000A604A6822434A601C4A156825431560AC
:101950000C681C430C604C681C434C6014681C43AE
:10196000146005235B040C681C430C604C681C432A
:101970004C6011681943116011490A6808239A43A1
:101980000A602822CA620F220A630A681A430A60A0
:10199000FF210A040B4B1C6894431C6082070A4C0D
:1019A00022600A4D2A6009061A688A431A60C00735
:1019B00020602860B0BDC04618C004404490044078
:1019C000008003401CE400E080E200E000E100E071
:1019D0001F2040067D21C9051B4A1C4BFFF71CFF39
:1019E000FFF7BAFCFFF74EFBFFF790FEFFF736FF5D
:1019F000FFF756FFFFF794FF00F036F84B20C001C9
:101A000000F04EF80120440711492046FFF7D8FCAA
:101A10001048114F00213960401EFBD1104E0C4D73
:101A200008E03960FFF730FE22462B46FEF76CFED9
:101A3000FFF7C6FC0948007801463B39C9B20929BD
:101A40003146EED80749ECE7A69BC43ACDCC4C3DD5
:101A500085EBB1BF80969800A4F0FF1F0CF0FF1F2C
:101A60007B5B563F9CC4A03F08480168022291431B
:101A700001600749074A0A60074A0A6103228A602F
:101A8000012101600548002101707047007003408A
:101A9000007103407F040000FF08000078F0FF1F82
:101AA000F0B581B0012293021F490C6B1C430C63FB
:101AB0001E4C2378F3251D40257093060D681D43A9
:101AC0000D6012040B6813430B601949194A0A6030
:101AD0004A60E61E35781F2100918D4316490D702E
:101AE00016490F68791C4143154800F02DF8C104D0
:101AF000C90E49193170A11E087000990F40E17993
:101B00003943E171611E00220A70E2706271A271B4
:101B100061786170A2700B49088020780C21014324
:101B2000217001B0F0BDC0460480044003A006400F
:101B30000490044000020001A0F0FF1F10F0FF1FFE
:101B4000006CDC0298F0FF1F43088B421AD300227E
:101B500003098B4279D3030A8B425ED3030B8B427A
:101B600042D3030C8B4227D30902FF2212BA030C83
:101B70008B4202D31212090203D0030B8B4233D3E0
:101B80001AE0D3E0411A8041401C704703460B43E2
:101B900071D443088B42F5D3002203098B4254D3FE
:101BA000030A8B4239D3030B8B421DD3030C8B42A8
:101BB00002D394466EE0090AC30B8B4201D3CB03D8
:101BC000C01A5241830B8B4201D38B03C01A52417E
:101BD000430B8B4201D34B03C01A5241030B8B4280
:101BE00001D30B03C01A5241C30A8B4201D3CB026B
:101BF000C01A5241830A8B4201D38B02C01A524150
:101C0000430A8B4201D34B02C01A5241030A8B4252
:101C100001D30B02C01A5241CDD2C3098B4201D36A
:101C2000CB01C01A524183098B4201D38B01C01AE8
:101C3000524143098B4201D34B01C01A524103095F
:101C40008B4201D30B01C01A5241C3088B4201D30E
:101C5000CB00C01A524183088B4201D38B00C01ABB
:101C6000524143088B4201D34B00C01A5241411AE2
:101C7000524110007047CA0F00D04942031000D3F0
:101C80004042534000229C4603098B422DD3030A55
:101C90008B4212D38901FC2212BA030A8B420CD365
:101CA000890192118B4208D3890192118B4204D38E
:101CB000890137D0921100E08909C3098B4201D311
:101CC000CB01C01A524183098B4201D38B01C01A48
:101CD000524143098B4201D34B01C01A52410309BF
:101CE0008B4201D30B01C01A5241C3088B4201D36E
:101CF000CB00C01A524183088B4201D38B00C01A1B
:101D00005241D9D243088B4201D34B00C01A5241F1
:101D1000411A00D201465241104663465B1000D37F
:101D20004042704763465B1000D3404201B500213A
:101D3000004201D0C9430846C046C04602BD10B5A6
:101D400000F058F8EFF30080400001D5012010BDED
:101D5000002010BD10B500F07FF8EFF300804000C8
:101D6000800F012800D0002010BD10B500F0A6F8AB
:101D7000EFF30080800001D4012010BD002010BDD1
:101D800010B500F013F9EFF30080400001D50120F9
:101D900010BD002010BD10B500F032F9EFF3008047
:101DA000800001D5012010BD002010BD10B500F04D
:101DB00027F9EFF300804000800F012800D00020B9
:101DC00010BD10B500F046F9EFF300804000800F21
:101DD000012801D0012010BD002010BD10B500F079
:101DE00039F9EFF30080800001D4012010BD0020FC
:101DF00010BD000070B501252D050C001C4310D44A
:101E0000EC4206D4AC420AD4994200D070BD904254
:101E100070BDE94217D4EB4215D4994270BD894296
:101E200070BDEC4206D5AC42F9D58B4200D070BDF6
:101E3000824270BD6D004C00EC4204D25C00EC426A
:101E400001D28B4270BD034C30B4FFF705F830BCB3
:101E500070BD00BF1900120470B501252D050C00DE
:101E60001C4310D4EC4206D4AC420AD4994200D0B0
:101E700070BD904270BDE94217D4EB4215D499422F
:101E800070BD894270BDEC4206D5AC42F9D58B429B
:101E900000D070BD824270BD6D004C00EC4204D297
:101EA0005C00EC4201D28B4270BD034C30B4FEF7B3
:101EB000D3FF30BC70BD00BF1900130470B50125FD
:101EC0002D050C001C4310D4EC4206D4AC420AD4BD
:101ED000994200D070BD904270BDE94217D4EB42E8
:101EE00015D4994270BD894270BDEC4206D5AC4212
:101EF000F9D58B4200D070BD824270BD6D004C00A0
:101F0000EC4204D25C00EC4201D28B4270BD034C27
:101F100030B4FEF7A1FF30BC70BD00BF190016043D
:101F200070B50125ED0704004C4020D4441A01D2BD
:101F3000001B0919C60D4B00F2B2FF2A29D01B0E57
:101F40002CD000020C0228432C43D31ADC40051984
:101F500010D2280A02D3401C6D0611D0761EF60559
:101F60008019FF2A00DA70BDC00DC00570BD694040
:101F700000F0F8F801200543C541521C761CE8E743
:101F800064089C40C90161408900E7D10124A04355
:101F9000E4E71B0E440200D0034870BD002AFCD1C8
:101FA000C00FC00770BD00BF0000C07F0123DB056C
:101FB00002000A430DD4DA4203D49A4207D488427D
:101FC0007047D84214D4D94212D488427047804214
:101FD0007047DA4203D59A42F9D5814270475B00D7
:101FE0004200DA4204D24A00DA4201D2814270470A
:101FF00010B5024AFEF780FF10BD00BF09001204B1
:102000000123DB0502000A430DD4DA4203D49A42CD
:1020100007D488427047D84214D4D94212D4884297
:10202000704780427047DA4203D59A42F9D581421F
:1020300070475B004200DA4204D24A00DA4201D221
:102040008142704710B5024AFEF756FF10BD00BF2F
:10205000090013040123DB0502000A430DD4DA4210
:1020600003D49A4207D488427047D84214D4D94244
:1020700012D48842704780427047DA4203D59A42B0
:10208000F9D5814270475B004200DA4204D24A002F
:10209000DA4201D28142704710B5024AFEF72CFFA6
:1020A00010BD00BF0900160470B5420064414B002A
:1020B0005C41120E39D01B0E38D0FF2A3CD0FF2BCA
:1020C0003AD0D2187F3A40024902400A490A4518DC
:1020D000ED0106004E43000A090A48430104731A41
:1020E0004019190C4318990F04D05B0801214907C6
:1020F0005B1A521CD80904D3401CF50301D19D067C
:1021000007D0FF2A08D2D50506D0E407204340199E
:1021100070BD0125A843F4E7002A01DCE00770BD8B
:102120002402FF202043C00570BD1B0EFF2A03D0F0
:10213000FF2B01D0E00770BDFF2636064500B542F3
:1021400006D84D00B54203D8D218FF2A00D0E7E7E1
:10215000004870BD0000C07F70B50125ED07040088
:102160004C4022D4441A02D26C40001B0919C60DFF
:102170004B00F2B2FF2A4BD01B0E50D000020C02D3
:10218000A8432C43D31ADC40051B05D5AD0019D359
:102190006D08761E521E37D0F605280A01D2801926
:1021A00070BD70416D0603D070BD6940FFF7BEFE83
:1021B0009C4009026140490001D0401E70BD0124CD
:1021C000A04370BD6D081DD001202B0C01D12D0442
:1021D00010302B0E01D12D0208302B0F01D12D0113
:1021E000001DAB0F01D1AD00801CEB0F01D16D00C4
:1021F000401C361A121A6D00680AF5054019012AAA
:1022000002DB70BD002070BDC036300AC00770BD53
:102210001B0E440201D1FF2B00D1024870BD002AE1
:10222000F0D070BD0000C07F80807F7E7D7C7B7A97
:102230007978777676757473727171706F6E6E6D72
:102240006C6C6B6A6A696868676666656464636318
:1022500062616160605F5F5E5E5D5D5C5C5B5B5A9E
:102260005A5959585857575656555555545453530B
:1022700052525251515050504F4F4F4E4E4D4D4D66
:102280004C4C4C4B4B4B4A4A4A49494948484847B1
:1022900047474746464645454544444444434343EF
:1022A00043424242424141418182838485868788FC
:1022B000898B8C8D8E8F919293959697999A9C9DF0
:1022C0009FA0A2A3A5A7A8AAACAEB0B2B3B5B7B958
:1022D000BCBEC0C2C5C7C9CCCED1D4D7D9DCDFE221
:1022E000E6E9ECF0F3F7FAFE0823000000F0FF1F28
:1022F00014000000040100001C23000018F0FF1F60
:1023000098010000200100000000C8420000C842FF
:0C2310000000C8423F3F00000F0000002A
:040000050000016591
:00000001FF
