:020000040000FA
:1000000050F2FF1F650100006F0100007101000048
:1000100000000000000000000000000000000000E0
:10002000000000000000000000000000730100005C
:1000300000000000000000007501000077010000D2
:1000400079010000790100007901000079010000C8
:1000500079010000790100007901000079010000B8
:1000600079010000790100007901000079010000A8
:10007000790100007901000079010000F90D00000C
:10008000790100002D1200007901000079010000C3
:100090007901000079010000350F000079010000AE
:1000A0007901000079010000790100007901000068
:1000B0007901000079010000790100007901000058
:1000C00000F002F800F03EF80CA030C80838241800
:1000D0002D18671EA246AB4654465D46AC4201D180
:1000E00000F030F87E460F3EB6460FCC0126334274
:1000F00000D0FB1A3343A246AB461847CC1A000087
:10010000EC1A0000103A02D378C878C1FAD8520726
:1001100001D330C830C101D504680C6070470000BD
:100120000023002400250026103A01D378C1FBD813
:10013000520700D330C100D50B6070471FB51FBDFB
:1001400010B510BD00F0D0F81146FFF7F7FF01F031
:10015000EFFA00F0E8F803B4FFF7F2FF03BC00F099
:100160003FF900000848804762B608480047FEE7AC
:10017000FEE7FEE7FEE7FEE70548004705480649BB
:10018000044A064B7047000049110000C1000000FE
:100190007901000050F1FF1F50F2FF1F50F1FF1FC7
:1001A00070477047704700000346CA02400D10B503
:1001B00010430A1504D00124E4072043002A05DB7C
:1001C0000A4CA21A04D4D040FF2A00DD002010BD42
:1001D0004A00002B01D0012000E00020101801226D
:1001E0005205D042F2D8C817C04310BD1E0400000B
:1001F0001F22030C02D10F22000402D0030E03D0F1
:1002000004E00020014670470002083A030F01D1C4
:100210000001121F830F01D18000921E002801DB14
:100220004000521E120551184205C01241181046D6
:100230007047C10FC90700D0404201229207114305
:10024000D6E701218907D3E7F8B5264C4E00069D75
:10025000A6420AD8A64201D1002806D15E00A642D5
:1002600003D8A6420AD1002A08D00D24240425422E
:1002700033D02946002000F05EF8F8BD0C461C4340
:1002800011D4994207D0C81A02D3EFF30080F8BD09
:10029000EFF30080F8BD801A02D3EFF30080F8BDC1
:1002A000EFF30080F8BD09242407E5008B4207D056
:1002B000581A02D3EFF3008006E0EFF3008007E066
:1002C000101A03D3EFF30080A04303E0EFF30080A4
:1002D000A043284380F30088F8BD009500F042F861
:1002E000F8BD00000000E0FF754600F045F8AE469E
:1002F000050069465346C008C000854618B020B5C1
:10030000FFF73CFF60BCB64600260027C0C5C0C54D
:10031000C0C5C0C5C0C5C0C5C0C5C0C5403D4908F1
:1003200049008D46704710B50446C046C046204679
:10033000FFF711FF10BDC80212D54803400F002877
:1003400004D0C803C043012188407047EFF3008008
:100350000001000903210907084380F30088704762
:100360000020704710B500200249029A00F008F8FA
:1003700010BD00000000F87F0048704710F0FF1F1C
:1003800010B50C461107090F092904D00A290AD013
:1003900008290CD104E011460820FFF7CCFF06E045
:1003A000510606D501E0510601D50120C0072146BE
:1003B00010BDD10607D501010909CC084907000E77
:1003C0000006044309E0410F20024907000A0143E7
:1003D000200E00061D22D14101430846E7E7000038
:1003E00001491820ABBEFEE726000200704700005E
:1003F00000000000000000000000000000000000FD
:10040000FFFFFFFFFFFFFFFFFFFFFFFFFEFFFFFFFD
:10041000F0B50C46871A9C410D46861A9D4103D2C1
:10042000C01BA141D21963410D0D1F0DC94EEC1B1C
:10043000AE435CD07F057F0D0026002F51D02D05E7
:10044000AC46A943DD020123ED0A1B051D43202311
:100450001B1B24D41746E740381871412F46E7404C
:10046000CC199D402818314661410C0D27D16144BB
:100470009A4013D50023401C594152000ED1400828
:10048000400001224B005205D34207D3052040070C
:10049000C14201D5B04900E0B0493046F0BD6B0023
:1004A000002A00D001229A181F23203C1B1B01D5D3
:1004B000002302E0E540281871410C0DD7D001243B
:1004C00024050919C407CD0740084908E40F28434B
:1004D0006144002CD5D00024401C61419A40D0D109
:1004E000CDE76A05520DD9D1C90FC907D5E79C4D93
:1004F0004E00002801D0012400E0002434195F00E0
:10050000002A01D0012600E00026BE19954FAC421A
:100510000CD8AE420AD8B44206D001256D05EC4293
:10052000BCD010461946F0BD9942FCD00020394697
:10053000F0BDF0B51FB40C460F46811A9F41254609
:10054000861A9D4106D20125ED076F40401ABC4135
:1005500052187B41210D1E0D8D1BAC467D4D8D43E8
:100560007ED075056D0D7CD00D05AE46AC431B03EA
:100570001B0B794D52429D41202366469B1B14D391
:100580001746F740381800260090744160462F4601
:100590000741E41900989D402818664116D4714619
:1005A00071189A4025D5012320E093182A466A4104
:1005B0005200002B00D0521C1E23203E9B1B002B00
:1005C00061DD3541EE1728186641E8D500187641FF
:1005D0005B1C9A4000D3401C4B05F3181524E340E4
:1005E00010D3002B52D071467118D30FC01802D30C
:1005F000491C05B0F0BD0123DB079A42F9D1400840
:100600004000F6E701225205B21801D1002853D06C
:100610000123CC0ADB029943891E002A08D1020C6F
:1006200003D0020C0004103902E0024600202039F9
:100630000023550B05D112020823550B01D152019D
:100640000D23550C01D112011B1DD50C01D19200B7
:100650009B1C150D01D152005B1C2025EE1A01E0F8
:100660002CE022E00546F54015439840CA1AE10700
:1006700069181305C918002ABBDA032040070818B7
:10068000C10FC9070FE071466118B2E7F1074008D2
:100690000843711071444A000CD001235B059A4253
:1006A000A7D2C90FC9070020A3E74905490D26D1E4
:1006B000002001E00028F4D100219AE7284D6600CF
:1006C000002801D0012100E0002171185F00002AFC
:1006D00001D0012600E00026BE19224FA94210D801
:1006E000AE420ED8B14208D001256D05E94206D0D0
:1006F0001946A802414010467BE79C4201D02146A2
:1007000077E70020394674E710B50C465C4005D504
:100710000124E4076340FFF70CFF10BDFFF778FEEC
:1007200010BD30B40C465C4004D50124E40763409E
:1007300030BC6DE630BCFCE670B50124E4076140D6
:100740000D465D4002D4FFF763FE70BD6340FFF7C6
:10075000F0FE70BDFF0700000000F0FF0000F07F1A
:100760000000E0FF0000F87FF0B5F94D0C091E090C
:100770002C402E402F468BB0A7437DD0B543FCD0F4
:10078000002E7AD0002CFCD00D465D40ED0F2543A5
:10079000AC1BFF25AD0464190894C502440DC902C1
:1007A0002143500DDC0204430120C00701430443F0
:1007B000D2020191200C110C00958C4601042346B5
:1007C0008B430A9161460904E24D8A430991010A6B
:1007D0007D4449198039097805464D4301266D1835
:1007E000F605751B6943C90C640B891C4C436418DE
:1007F000B5012C1B250C2E04B4434C434D43210C56
:10080000691889090591009DE90701D00121C907EF
:1008100004912C4601996708CD072F434C08059D8C
:10082000E10B4D432D0C29466646754302950D4656
:1008300045432E46029D7D1BB44100950D465D4308
:1008400001942C0C2F040D465543AE462D0C3D4310
:10085000029503947546049C2D04641B049406D2EF
:10086000029C039D641C002675410395029401AC13
:1008700070CC009F7D1B01E03EE162E1B4410904C0
:100880000095079101940599A4086143090C0C4651
:100890004443650BE7040C4666467443A646640B66
:1008A0003C43039502947446049DE4042C1B049479
:1008B00006D2029C039D641C002675410395029498
:1008C00001AC70CC009F7D1BB44101940C465C438D
:1008D0000095650FE7000C465443A646640F3C4361
:1008E000039502947446049DE4002C1B049406D2E4
:1008F000029C039D641C002675410395029401AC83
:1009000070CC009F7D1BB441AE09AF06049DC900A9
:10091000AD092F43049DA406AD060495079D3443FD
:1009200069180791059DE10B4D432D0C294666463C
:10093000754302950D4645432E46029D7D1BB441ED
:1009400000950D465D4301942C0C2F040D46554334
:10095000AE462D0C3D43029503947546049C2D0430
:10096000641B049406D2029C039D641C00267541FE
:100970000395029401AC70CC009F7D1BB44101949F
:100980008C050694079C890A611800950791019CC3
:100990000599A4086143090C0D464543680BEF0413
:1009A0000D46644665436C0B3C43049FED047D1B80
:1009B000AC4602D20025641C6841009E019D371B95
:1009C00085410846584301950C46460FC5005443DF
:1009D000600F28436546E4002C1B02D20025401C12
:1009E0006E41019D3F1AB5412846BD098006284346
:1009F0008446A009BF064E020699A406761807434E
:100A0000079D002068410A99079019430020099B1F
:100A100000906046FF1913434041E20F64003A43DF
:100A2000A4460446D71A8C41A04203D90120009065
:100A300020463A46C70F941840416246D20F2243DF
:100A4000644664000494009CBE466400D71AA44621
:100A5000044602978C417746002F01D1A04204D969
:100A60006046401C8446029A2046C40FA64694184D
:100A70004041049A0546D20F224364466400D31ACB
:100A80008D417146002901D1A84202D928461A4653
:100A9000641C10430122002800D01643610200208C
:100AA000079B891904465C410223002C02DB49188C
:100AB00013466441089DCE0A2D145D194B05670548
:100AC000E10A2C050D1908993E43C9076940002B1E
:100AD00008D0934006D30022761C5141002B01D14F
:100AE000760876001C4A002D43DB154241D0AA430C
:100AF0003FD030460BB0F0BD06180D464D41174CA7
:100B00007642AC411AD395181C465C41134A6D429B
:100B1000A24113D3012252054C00D4420AD15C00F9
:100B2000D4420BD04B4002D592021143E2E7490078
:100B30004908DFE75940C90FC90718E000200849F4
:100B4000D8E7054801420DD10342F7D0F2E7000093
:100B50000000FF07741300000000F07F0000E0FFBA
:100B60000000F87F114859400143C0124140002065
:100B7000C0E70123089A9B069A4205DC032252072C
:100B80008918C90FC907B5E7052252078918074A0E
:100B90001143D2125140ADE770B515461C460246CE
:100BA0000B4628462146FFF7DFFD70BDFFFFFF7FA4
:100BB000F0B58B4C0F09254689B0BD437BD01D098C
:100BC0002646AE43FAD00E465E402740F60F3E431F
:100BD000254071D024012142FBD0FF24AD19A4048B
:100BE0002D1B039501252D05DB02DB0AC9022B43D2
:100BF000C90A29431E010901040F130F05012143EE
:100C00001701880B820391432D098C46A90B1E43C3
:100C10008A039543B30B9A0396433F09BA0B940397
:100C2000A74302962E467E430497B6464E19D7191F
:100C30000C460196544305977E43371B7646BF1BEF
:100C40003601B646BE0B361900967646BC043719F7
:100C5000009C01D3641C00946400002F01D0012685
:100C60003443029E049F754366467E430496760095
:100C700034196E0034190094029C019E1C196643BD
:100C8000751BAE46069465464519059C05956C4353
:100C9000594375460891691A0191049E01465143D2
:100CA000A41B0491611A009C0791E10605D061091B
:100CB0000122114302E072E06EE06109089D002705
:100CC0002C0A2D066918049D7C412A0A2D066918F4
:100CD000019D6241AC0DAD026D185441079A910D12
:100CE000920255196141029A644658435443069B47
:100CF000059A5A43121A131B9A0E9B015B187A41EC
:100D0000010B0005C3185141220A200644195A411B
:100D10009A4200D2491C01204002814203D315238C
:100D20000226F64302E014230326F6432020C51AC8
:100D3000A9401746AF40DA400A4320460399D840FD
:100D40000914731819055118039A3843D2075140F2
:100D5000AC4009D00122944006D30022401C5141EE
:100D6000002C01D1400840001E4A934212D30122B8
:100D700003989206904207DB0520400709181A489D
:100D80000143C012414004E0032040070818C10F8E
:100D9000C907002009B0F0BD0020F107FAE70518E7
:100DA0000C464C4111486D42A04115D394181A4687
:100DB0005A410E48644290410ED301204A0040053A
:100DC000824209D35A00824206D35940C90F084AC9
:100DD000C90700201143DDE700200649DAE70000DB
:100DE0000000FF07FE070000FFFFFF7F0000E0FF9D
:100DF0000000F07F0000F87F10B59948016840229C
:100E000091430160006993494A68FF2A0DD813464F
:100E10003E3B832B09D85208924B9854C3B20C78AE
:100E2000A34202D9904B5A70087010BD70B50120D2
:100E3000820236490B1F1C6814431C6003231B02EB
:100E4000334C25681D432560324B1C6814431C60DD
:100E500003020C681C430C604C681C434C60CC685B
:100E60001C43CC608B6813438B600A6802231A43CF
:100E70000A604A681A434A60CA681A43CA60264A26
:100E8000136808210B431360146804231C43146087
:100E900015682024254315601546103D2E680E4325
:100EA0002E602E681E432E600C3A1568254315608F
:100EB0001A4A15681D4315601368A3431360002385
:100EC0005360174C9460146840252543156028240E
:100ED000D462D46154614424D460FF242402114DAF
:100EE0002E68A6432E604404584D2C600E4D2C6095
:100EF000C0060E4C2568054325600D48106313623B
:100F0000936110680843106070BDC04608C004407B
:100F10001490044004B00440D4F00F40008003401B
:100F200060EA000010E400E000E100E0848003409B
:100F300094110000F0B583B00124A0054349086076
:100F4000434F3E46103E3068C00716D13868C00790
:100F500011D040480179C90702D1414948220A60AD
:100F60003968214039603C494A68802313434B600B
:100F70004168491C416003B0F0BD3B46143B00256D
:100F80001D60381F056033498968032953D8C0465E
:100F90007944097949008F44012A323B02932E4952
:100FA000802008602F4FFF2139707F200191395434
:100FB000EF20B87761217854785D00F03BFC6D1C20
:100FC000802DF9D128484178234A121F402313600D
:100FD000204D6C60AC601E4F3A461C3A234B1360A8
:100FE00000226A70017001982870029B23E01A4861
:100FF000001F016880220A430260022005E01648B3
:10100000016840220A43026003201249886012E00E
:1010100011490A681946802313430F4A13600B468F
:1010200039461C390D4A0A600D4948220A600321DD
:101030000160084885603068204030603868204092
:1010400038600320186003B0F0BDC04680E200E0C5
:101050001C710340C4F0FF1F88F00F40ECB2090080
:1010600000B00340D0F0FF1F00F0FF1F7F0400001E
:1010700010B501214A0211480368134303600A03B3
:101080000368134303608A02036813430360CA02C0
:101090000368134303600A06436813434360CB06A7
:1010A00044681C434460C90543680B4343603438BB
:1010B0000168114301600168016010BD388004407F
:1010C00070B50D460646174A174B00F0CEFC0028B7
:1010D00027D1144A154B3046294600F0BBFC0028A6
:1010E0001FD10024B74B304629462246FFF70CFBA0
:1010F0000F4B2246FFF75CFDAD4D0E4B2A46FFF726
:1011000057FD0D4B2A46FFF7FFFA0C4B2246FFF71F
:101110004FFD0B4B2246FFF7F7FAFFF745F8094959
:10112000086070BDCDCCCCCCCCCCECBFCCCCEC3FF3
:101130000000E03F9999E93F9999B93F0070B740A5
:10114000007097403080034070B52E490020086041
:101150002D490978C90707D02C490A78120703D509
:101160000A78082313430B7029492A220A70B94AC6
:101170002849116403239904274C25680D432560F1
:1011800001210C041568254315601B0614689C4357
:101190000B06E31813604B02546B1C4354631F4A45
:1011A00013681F4C234013605368234053601D4A4B
:1011B0009070531F24241C701B4B80241C70931FA1
:1011C0009A241C701478A407FCD51478E406FCD487
:1011D000D41E25781F262E402670941E2170511E85
:1011E00008700878402404430C7010784006FCD541
:1011F00018783F210140197010780C2101400C290A
:10120000FAD170BD0081044000F0074002D00740D1
:1012100000E00740000001100070044048900440C6
:10122000FFF8FFFE0640064000500640F0B59BB0B8
:101230005A4BD868000604D4186800060CD41BB0BA
:10124000F0BD57480168491C0160D86880210143FE
:10125000D96018680006F2D5514F386800243C6008
:10126000196880220A431A60FEF7EBFF4D4B2246B5
:10127000FFF77AFA4C4A4D4BFFF79AFC4C4D4D4B19
:101280002A46FFF795FC4C4B2A46FFF76DFA0546B8
:101290000E46B860F960B8691690F8691590386A1A
:1012A0001990786A1A90B86A1790F86A1890386B93
:1012B0001490786B1390BA6BFB6B386C1290786C4F
:1012C0001190B86C1090F86C0F903869796908909B
:1012D00009910A950B9616980C9015980D901498F4
:1012E0000090139801A90DC11298049011980590CF
:1012F000109806900F98079019981A99179A189BAA
:1013000000F0EEF806460D46B861F96122461A94DF
:10131000234600F094FB29490A78002811D10020C7
:10132000012A35D11D4D2862A861254A1368202461
:101330001C4314602C46FF220A702062A0611BB07F
:10134000F0BDFF2A154C09D100202062A0611C4885
:101350004268202313434360012008705F4B3046EE
:1013600029461A9F3A4600F075FB0146002800D135
:1013700037460029594900D12946134B38461A9A55
:10138000FFF716FCFEF710FF2062A0611BB0F0BD56
:10139000024C2062A0611BB0F0BDC046008003403B
:1013A00070F0FF1F000018401F85EB51B81E094068
:1013B0009A9999999999A93F9999C93F08F0FF1F5E
:1013C000C4F00F400000F03F004CED40F0B581B09C
:1013D000012293021F490C6B1C430C631E4C2378A3
:1013E000F3251D40257093060D681D430D60120402
:1013F0000B6813430B601949194A0A604A60E71EDB
:101400003E781F2100918E4316490E7016490D68D3
:101410006843411C154800F017FAC104C90E891928
:101420003970A11E087000990D40E1792943E171DE
:10143000611E00220A70E178E1706271A271617828
:101440006170A2700749488020780C210143217007
:1014500001B0F0BD0480044003A0064004900440A5
:1014600000020001C0F0FF1F04F0FF1F006CDC024F
:1014700070B519490E783E2804D8864209D9DB494F
:10148000002070BD7F21891B814215DAD1490020DF
:1014900070BD801BFEF7CDFE04460D463F20801B2D
:1014A000FEF7C7FE02460B460120C0074540204616
:1014B0002946FFF759F970BD3F38FEF7BAFE0446DA
:1014C0000D464020801BFEF7B4FE02460B46204628
:1014D0002946FFF749F970BD0AF0FF1F0000F03FF1
:1014E000F0B581B01C4615460E4607460EAB0FCB35
:1014F000FFF717F93A463346FFF75AFB129A139B48
:10150000FFF702F906460F46089A099B284621462E
:10151000FFF74EFB32463B46FFF7F6F804460D4612
:10152000069807990A9A0B9BFFF742FB22462B4627
:10153000FFF7EAF801B0F0BDF0B5012002023C4926
:101540000B6813430B604B6813434B600A6802231C
:101550001A430A604A681A434A60364A11684024AE
:1015600021431160136880210B4313601346103B25
:101570001D680D431D600C3A1368234313602E4A07
:10158000136813602D4A131F1D68A5431D600B24AB
:10159000E443156825401560146807252543156048
:1015A00014680C4314601446243C25682D06FAD5B3
:1015B00015686D063AD4956A566A7519166AAD199A
:1015C000D669AD199669AD195669AD196E08C00393
:1015D000451E2E4036189660966C576CBE19176CD7
:1015E000F619D76BF619976BF619576BF61976083B
:1015F0002E403518D56015688D43156011461C398D
:1016000000250D60114618390D601F2121601D60F5
:1016100011680F230B401360FF210906084A136865
:101620008B4313604049086040490860F0BDC046E4
:1016300018B0044094F00F4000A0044024B00340D0
:101640000CE400E0F0B589B01F4604930446002581
:101650008561C561056245628562C5621298069022
:101660001399059116460392FFF77EF808900791AB
:1016700020616161109A119B30463946FFF798FA54
:10168000174B2A46FFF794FA06460F460E9D0F9B0E
:1016900002932A46FFF745F80190009106980599B4
:1016A00002460B46FFF730F8039A049BFFF75CF8FD
:1016B00002460B4601980099FFF733F8A060E160FD
:1016C000304639462A46029BFFF71EF802460B4673
:1016D00008980799FFF718F803C409B0F0BDC04691
:1016E0000000E03F4E4801680222914301600C482F
:1016F000014608394D4B0B60016804230B40036021
:10170000016811430160FF20000406490A68824312
:101710000A60012080050449086004490860704798
:101720000871034014E400E080E200E000E100E022
:1017300092B02848002400940190029403900494ED
:10174000059006AD244B28462246FFF77BFF234831
:101750004ECD4EC04ECD4EC04ECD4EC0FFF788FC94
:10176000FFF764FBFFF7E8FEFFF7BCFF00F046F869
:10177000E1204002FFF72AFE194F1A4D1A4E08E0E9
:101780001A4971603460FFF773FEFFF799FC01207E
:10179000287038782978002904D02978022901D0C6
:1017A00002212970297801290CD00629E8D00229C4
:1017B000EFD10848706034600D480E49FFF780FC97
:1017C0002C70E6E70C4971603460FFF751FEFFF7BB
:1017D00077FCDEE70000F03F0000694090F0FF1F5B
:1017E00000F0FF1F09F0FF1F80F0FF1F0000F0BF97
:1017F0007B14AE47E17A94BF0000D03F08480168EF
:101800000222914301600749074A0A60074A0A61B8
:1018100003228A6001210160054800218160704730
:1018200000700340007103407F040000FF080000C7
:10183000C4F0FF1F03490A7852B2002AFBD5C870D2
:101840007047C04604A0064043088B421AD30022CA
:1018500003098B4279D3030A8B425ED3030B8B427D
:1018600042D3030C8B4227D30902FF2212BA030C86
:101870008B4202D31212090203D0030B8B4233D3E3
:101880001AE0D3E0411A8041401C704703460B43E5
:1018900071D443088B42F5D3002203098B4254D301
:1018A000030A8B4239D3030B8B421DD3030C8B42AB
:1018B00002D394466EE0090AC30B8B4201D3CB03DB
:1018C000C01A5241830B8B4201D38B03C01A524181
:1018D000430B8B4201D34B03C01A5241030B8B4283
:1018E00001D30B03C01A5241C30A8B4201D3CB026E
:1018F000C01A5241830A8B4201D38B02C01A524153
:10190000430A8B4201D34B02C01A5241030A8B4255
:1019100001D30B02C01A5241CDD2C3098B4201D36D
:10192000CB01C01A524183098B4201D38B01C01AEB
:10193000524143098B4201D34B01C01A5241030962
:101940008B4201D30B01C01A5241C3088B4201D311
:10195000CB00C01A524183088B4201D38B00C01ABE
:10196000524143088B4201D34B00C01A5241411AE5
:10197000524110007047CA0F00D04942031000D3F3
:101980004042534000229C4603098B422DD3030A58
:101990008B4212D38901FC2212BA030A8B420CD368
:1019A000890192118B4208D3890192118B4204D391
:1019B000890137D0921100E08909C3098B4201D314
:1019C000CB01C01A524183098B4201D38B01C01A4B
:1019D000524143098B4201D34B01C01A52410309C2
:1019E0008B4201D30B01C01A5241C3088B4201D371
:1019F000CB00C01A524183088B4201D38B00C01A1E
:101A00005241D9D243088B4201D34B00C01A5241F4
:101A1000411A00D201465241104663465B1000D382
:101A20004042704763465B1000D3404201B500213D
:101A3000004201D0C9430846C046C04602BD10B5A9
:101A400000F01EF8EFF30080800001D5012010BDEA
:101A5000002010BD10B500F013F8EFF30080400037
:101A6000800F012800D0002010BD10B500F03AF81A
:101A7000EFF30080800001D4012010BD002010BDD4
:101A800070B501252D050C001C4310D4EC4206D482
:101A9000AC420AD4994200D070BD904270BDE94278
:101AA00017D4EB4215D4994270BD894270BDEC4207
:101AB00006D5AC42F9D58B4200D070BD824270BDD4
:101AC0006D004C00EC4204D25C00EC4201D28B422F
:101AD00070BD034C30B4FEF7B7FB30BC70BD00BF27
:101AE0001900130470B501252D050C001C4310D4FA
:101AF000EC4206D4AC420AD4994200D070BD904268
:101B000070BDE94217D4EB4215D4994270BD8942A9
:101B100070BDEC4206D5AC42F9D58B4200D070BD09
:101B2000824270BD6D004C00EC4204D25C00EC427D
:101B300001D28B4270BD034C30B4FEF785FB30BC44
:101B400070BD00BF1900160480807F7E7D7C7B7A8B
:101B50007978777676757473727171706F6E6E6D59
:101B60006C6C6B6A6A6968686766666564646363FF
:101B700062616160605F5F5E5E5D5D5C5C5B5B5A85
:101B80005A595958585757565655555554545353F2
:101B900052525251515050504F4F4F4E4E4D4D4D4D
:101BA0004C4C4C4B4B4B4A4A4A4949494848484798
:101BB00047474746464645454544444444434343D6
:101BC0004342424242414141E81B000000F0FF1FF6
:101BD0000C00000004010000F41B000010F0FF1FC7
:101BE00040020000200100003F3F00000F00000005
:041BF00001051E00CD
:040000050000016591
:00000001FF
