:020000040000FA
:10000000A8F2FF1F650100006F01000071010000F0
:1000100000000000000000000000000000000000E0
:10002000000000000000000000000000730100005C
:1000300000000000000000007501000077010000D2
:1000400079010000790100007901000079010000C8
:1000500079010000790100007901000079010000B8
:1000600079010000790100007901000079010000A8
:10007000790100007901000079010000FD0F000006
:100080007901000089140000790100007901000065
:100090007901000079010000B5110000790100002C
:1000A0007901000079010000790100007901000068
:1000B0007901000079010000790100007901000058
:1000C00000F002F800F03EF80CA030C80838241800
:1000D0002D18671EA246AB4654465D46AC4201D180
:1000E00000F030F87E460F3EB6460FCC0126334274
:1000F00000D0FB1A3343A246AB461847DC1B000076
:10010000FC1B0000103A02D378C878C1FAD8520715
:1001100001D330C830C101D504680C6070470000BD
:100120000023002400250026103A01D378C1FBD813
:10013000520700D330C100D50B6070471FB51FBDFB
:1001400010B510BD00F0D8FE1146FFF7F7FF01F023
:1001500069FB00F0F0FE03B4FFF7F2FF03BC00F010
:1001600047FF00000848804762B608480047FEE79E
:10017000FEE7FEE7FEE7FEE70548004705480649BB
:10018000044A064B70470000A5130000C1000000A0
:1001900079010000A8F1FF1FA8F2FF1FA8F1FF1FBF
:1001A00070477047704700000346CA02400D10B503
:1001B00010430A1504D00124E4072043002A05DB7C
:1001C0000A4CA21A04D4D040FF2A00DD002010BD42
:1001D0004A00002B01D0012000E00020101801226D
:1001E0005205D042F2D8C817C04310BD1E0400000B
:1001F0001F22030C02D10F22000402D0030E03D0F1
:1002000004E00020014670470002083A030F01D1C4
:100210000001121F830F01D18000921E002801DB14
:100220004000521E120551184205C01241181046D6
:100230007047C10FC90700D0404201229207114305
:10024000D6E701218907D3E70121C9050123411818
:1002500042001B06D3185B0E0AD0C1100722D2063B
:10026000891840075242D14201D55200891870477F
:10027000090208D50146002A03D0C10FC907002092
:10028000704710467047420202D000200249704772
:10029000072109050143F4E70000F87FF0B5FF25C9
:1002A0002D04C609C209FF2704462E400137CB0999
:1002B0003E4348402A402B400746002A6BD0002B83
:1002C00069D0AA4267D0AB4265D0002800DA324636
:1002D0000125ED0529432C4309022002090AD21AFF
:1002E0004B0C7F24E31A434C000A7C44E35C7D24DE
:1002F0002404121914145B00A218884201D3521C62
:1003000000E0400049420C465C4324115C43DB01A1
:100310006415E318040A5C43C502200D0C464443EF
:100320006419250A5D432303EC0C0D466543000365
:100330000019EB184C42A34201D35B18401CD405B2
:100340002018002B07D05B00C91804D3401C0029DB
:1003500001D1400840003F2189048A4209D3002A84
:1003600008DC1106090F04D0032149074018C00F0B
:10037000C007F0BD01224100120689187F225206F3
:100380009142F6D205214907C84201D59010F0BD2F
:10039000FF20C005F0BD002F00DA32461648AA4201
:1003A00007D2AB4205D21902090E17D0F80FC007C9
:1003B000F0BDFF2563002D06AB42F9D84900A942E4
:1003C000F6D8AB4201D1A942F2D0A94201D1002115
:1003D00001E061004908D0050843F0BD1102090E93
:1003E000FBD0FF200243D005F0BD0A46014610466F
:1003F00054E70000AA1900000000C07F7047000009
:10040000FFFFFFFFFFFFFFFFFFFFFFFFFEFFFFFFFD
:10041000F0B50C46871A9C410D46861A9D4103D2C1
:10042000C01BA141D21963410D0D1F0DC94EEC1B1C
:10043000AE435CD07F057F0D0026002F51D02D05E7
:10044000AC46A943DD020123ED0A1B051D43202311
:100450001B1B24D41746E740381871412F46E7404C
:10046000CC199D402818314661410C0D27D16144BB
:100470009A4013D50023401C594152000ED1400828
:10048000400001224B005205D34207D3052040070C
:10049000C14201D5B04900E0B0493046F0BD6B0023
:1004A000002A00D001229A181F23203C1B1B01D5D3
:1004B000002302E0E540281871410C0DD7D001243B
:1004C00024050919C407CD0740084908E40F28434B
:1004D0006144002CD5D00024401C61419A40D0D109
:1004E000CDE76A05520DD9D1C90FC907D5E79C4D93
:1004F0004E00002801D0012400E0002434195F00E0
:10050000002A01D0012600E00026BE19954FAC421A
:100510000CD8AE420AD8B44206D001256D05EC4293
:10052000BCD010461946F0BD9942FCD00020394697
:10053000F0BDF0B51FB40C460F46811A9F41254609
:10054000861A9D4106D20125ED076F40401ABC4135
:1005500052187B41210D1E0D8D1BAC467D4D8D43E8
:100560007ED075056D0D7CD00D05AE46AC431B03EA
:100570001B0B794D52429D41202366469B1B14D391
:100580001746F740381800260090744160462F4601
:100590000741E41900989D402818664116D4714619
:1005A00071189A4025D5012320E093182A466A4104
:1005B0005200002B00D0521C1E23203E9B1B002B00
:1005C00061DD3541EE1728186641E8D500187641FF
:1005D0005B1C9A4000D3401C4B05F3181524E340E4
:1005E00010D3002B52D071467118D30FC01802D30C
:1005F000491C05B0F0BD0123DB079A42F9D1400840
:100600004000F6E701225205B21801D1002853D06C
:100610000123CC0ADB029943891E002A08D1020C6F
:1006200003D0020C0004103902E0024600202039F9
:100630000023550B05D112020823550B01D152019D
:100640000D23550C01D112011B1DD50C01D19200B7
:100650009B1C150D01D152005B1C2025EE1A01E0F8
:100660002CE022E00546F54015439840CA1AE10700
:1006700069181305C918002ABBDA032040070818B7
:10068000C10FC9070FE071466118B2E7F1074008D2
:100690000843711071444A000CD001235B059A4253
:1006A000A7D2C90FC9070020A3E74905490D26D1E4
:1006B000002001E00028F4D100219AE7284D6600CF
:1006C000002801D0012100E0002171185F00002AFC
:1006D00001D0012600E00026BE19224FA94210D801
:1006E000AE420ED8B14208D001256D05E94206D0D0
:1006F0001946A802414010467BE79C4201D02146A2
:1007000077E70020394674E710B50C465C4005D504
:100710000124E4076340FFF70CFF10BDFFF778FEEC
:1007200010BD30B40C465C4004D50124E40763409E
:1007300030BC6DE630BCFCE670B50124E4076140D6
:100740000D465D4002D4FFF763FE70BD6340FFF7C6
:10075000F0FE70BDFF0700000000F0FF0000F07F1A
:100760000000E0FF0000F87FF0B5F94D0C091E090C
:100770002C402E402F468BB0A7437DD0B543FCD0F4
:10078000002E7AD0002CFCD00D465D40ED0F2543A5
:10079000AC1BFF25AD0464190894C502440DC902C1
:1007A0002143500DDC0204430120C00701430443F0
:1007B000D2020191200C110C00958C4601042346B5
:1007C0008B430A9161460904E24D8A430991010A6B
:1007D0007D4449198039097805464D4301266D1835
:1007E000F605751B6943C90C640B891C4C436418DE
:1007F000B5012C1B250C2E04B4434C434D43210C56
:10080000691889090591009DE90701D00121C907EF
:1008100004912C4601996708CD072F434C08059D8C
:10082000E10B4D432D0C29466646754302950D4656
:1008300045432E46029D7D1BB44100950D465D4308
:1008400001942C0C2F040D465543AE462D0C3D4310
:10085000029503947546049C2D04641B049406D2EF
:10086000029C039D641C002675410395029401AC13
:1008700070CC009F7D1B01E03EE162E1B4410904C0
:100880000095079101940599A4086143090C0C4651
:100890004443650BE7040C4666467443A646640B66
:1008A0003C43039502947446049DE4042C1B049479
:1008B00006D2029C039D641C002675410395029498
:1008C00001AC70CC009F7D1BB44101940C465C438D
:1008D0000095650FE7000C465443A646640F3C4361
:1008E000039502947446049DE4002C1B049406D2E4
:1008F000029C039D641C002675410395029401AC83
:1009000070CC009F7D1BB441AE09AF06049DC900A9
:10091000AD092F43049DA406AD060495079D3443FD
:1009200069180791059DE10B4D432D0C294666463C
:10093000754302950D4645432E46029D7D1BB441ED
:1009400000950D465D4301942C0C2F040D46554334
:10095000AE462D0C3D43029503947546049C2D0430
:10096000641B049406D2029C039D641C00267541FE
:100970000395029401AC70CC009F7D1BB44101949F
:100980008C050694079C890A611800950791019CC3
:100990000599A4086143090C0D464543680BEF0413
:1009A0000D46644665436C0B3C43049FED047D1B80
:1009B000AC4602D20025641C6841009E019D371B95
:1009C00085410846584301950C46460FC5005443DF
:1009D000600F28436546E4002C1B02D20025401C12
:1009E0006E41019D3F1AB5412846BD098006284346
:1009F0008446A009BF064E020699A406761807434E
:100A0000079D002068410A99079019430020099B1F
:100A100000906046FF1913434041E20F64003A43DF
:100A2000A4460446D71A8C41A04203D90120009065
:100A300020463A46C70F941840416246D20F2243DF
:100A4000644664000494009CBE466400D71AA44621
:100A5000044602978C417746002F01D1A04204D969
:100A60006046401C8446029A2046C40FA64694184D
:100A70004041049A0546D20F224364466400D31ACB
:100A80008D417146002901D1A84202D928461A4653
:100A9000641C10430122002800D01643610200208C
:100AA000079B891904465C410223002C02DB49188C
:100AB00013466441089DCE0A2D145D194B05670548
:100AC000E10A2C050D1908993E43C9076940002B1E
:100AD00008D0934006D30022761C5141002B01D14F
:100AE000760876001C4A002D43DB154241D0AA430C
:100AF0003FD030460BB0F0BD06180D464D41174CA7
:100B00007642AC411AD395181C465C41134A6D429B
:100B1000A24113D3012252054C00D4420AD15C00F9
:100B2000D4420BD04B4002D592021143E2E7490078
:100B30004908DFE75940C90FC90718E000200849F4
:100B4000D8E7054801420DD10342F7D0F2E7000093
:100B50000000FF07441400000000F07F0000E0FFE9
:100B60000000F87F114859400143C0124140002065
:100B7000C0E70123089A9B069A4205DC032252072C
:100B80008918C90FC907B5E7052252078918074A0E
:100B90001143D2125140ADE770B515461C460246CE
:100BA0000B4628462146FFF7DFFD70BDFFFFFF7FA4
:100BB000F0B58B4C0F09254689B0BD437BD01D098C
:100BC0002646AE43FAD00E465E402740F60F3E431F
:100BD000254071D024012142FBD0FF24AD19A4048B
:100BE0002D1B039501252D05DB02DB0AC9022B43D2
:100BF000C90A29431E010901040F130F05012143EE
:100C00001701880B820391432D098C46A90B1E43C3
:100C10008A039543B30B9A0396433F09BA0B940397
:100C2000A74302962E467E430497B6464E19D7191F
:100C30000C460196544305977E43371B7646BF1BEF
:100C40003601B646BE0B361900967646BC043719F7
:100C5000009C01D3641C00946400002F01D0012685
:100C60003443029E049F754366467E430496760095
:100C700034196E0034190094029C019E1C196643BD
:100C8000751BAE46069465464519059C05956C4353
:100C9000594375460891691A0191049E01465143D2
:100CA000A41B0491611A009C0791E10605D061091B
:100CB0000122114302E072E06EE06109089D002705
:100CC0002C0A2D066918049D7C412A0A2D066918F4
:100CD000019D6241AC0DAD026D185441079A910D12
:100CE000920255196141029A644658435443069B47
:100CF000059A5A43121A131B9A0E9B015B187A41EC
:100D0000010B0005C3185141220A200644195A411B
:100D10009A4200D2491C01204002814203D315238C
:100D20000226F64302E014230326F6432020C51AC8
:100D3000A9401746AF40DA400A4320460399D840FD
:100D40000914731819055118039A3843D2075140F2
:100D5000AC4009D00122944006D30022401C5141EE
:100D6000002C01D1400840001E4A934212D30122B8
:100D700003989206904207DB0520400709181A489D
:100D80000143C012414004E0032040070818C10F8E
:100D9000C907002009B0F0BD0020F107FAE70518E7
:100DA0000C464C4111486D42A04115D394181A4687
:100DB0005A410E48644290410ED301204A0040053A
:100DC000824209D35A00824206D35940C90F084AC9
:100DD000C90700201143DDE700200649DAE70000DB
:100DE0000000FF07FE070000FFFFFF7F0000E0FF9D
:100DF0000000F07F0000F87F1F22030C02D10F22B9
:100E000000041CD0030E01D10002083A030F01D1E7
:100E10000001121F830F01D18000921E002801DB08
:100E20004000521ED205511802125118192290404A
:100E300004D3491C002801D14908490008467047DD
:100E4000C10FC90700D04042012292071143D3E7E6
:100E500001218907D0E70000F8B5264C4E00069D19
:100E6000A6420AD8A64201D1002806D15E00A642B9
:100E700003D8A6420AD1002A08D00D242404254212
:100E800033D02946002000F05EF8F8BD0C461C4324
:100E900011D4994207D0C81A02D3EFF30080F8BDED
:100EA000EFF30080F8BD801A02D3EFF30080F8BDA5
:100EB000EFF30080F8BD09242407E5008B4207D03A
:100EC000581A02D3EFF3008006E0EFF3008007E04A
:100ED000101A03D3EFF30080A04303E0EFF3008088
:100EE000A043284380F30088F8BD009500F042F845
:100EF000F8BD00000000E0FF754600F045F8AE4682
:100F0000050069465346C008C000854618B020B5A4
:100F1000FFF734F960BCB64600260027C0C5C0C53F
:100F2000C0C5C0C5C0C5C0C5C0C5C0C5403D4908D5
:100F300049008D46704710B50446C046C04620465D
:100F4000FFF709F910BDC80212D54803400F002869
:100F500004D0C803C043012188407047EFF30080EC
:100F60000001000903210907084380F30088704746
:100F70000020704710B500200249029A00F008F8DE
:100F800010BD00000000F87F0048704710F0FF1F00
:100F900010B50C461107090F092904D00A290AD0F7
:100FA00008290CD104E011460820FFF7CCFF06E029
:100FB000510606D501E0510601D50120C0072146A2
:100FC00010BDD10607D501010909CC084907000E5B
:100FD0000006044309E0410F20024907000A0143CB
:100FE000200E00061D22D14101430846E7E700001C
:100FF00001491820ABBEFEE72600020010B5AD483F
:1010000001684022914301600069AB490968FF29EA
:1010100014DCCA0F8A185210094B9854C2B2A84B5C
:101020001C7852395B2902D8A24200D91870A54B0E
:101030001C785B2902D8A24200D2187010BDC046AD
:1010400013F1FF1F70B50124A1023448021F136879
:101050000B43136003221202314B1D6815431D60C0
:10106000304A13680B431360220203681343036082
:10107000436813434360C3681343C36082680A43F1
:10108000826001680222114301604168114341609E
:10109000C1681143C16024480168082529430160E3
:1010A000026804210A43026003682022134303609C
:1010B0000346103B1E682E431E601E680E431E60D2
:1010C0000C38036813430360184E306808433060DF
:1010D000306890433060002070601548B060306820
:1010E0004021014331602820F062F06170614420AA
:1010F000F06000F045F800F023F800F031F8E00669
:101100000C490A6802430A600B4830630B4830629E
:10111000B06130682843306070BDC04608C00440EC
:101120001490044004B00440D4F00F400080034009
:1011300060EA00008480034094110000983A0000A7
:1011400001204004054908607047C0461F21014046
:1011500001208840014908607047C04680E200E0F5
:1011600001204004054908607047C0461F21014026
:1011700001208840014908607047C04600E100E056
:10118000FF20000202490A6882430A607047C04695
:1011900010E400E0C0B28107C90EFF228A40044972
:1011A0004018032188430168914301607047C0469D
:1011B00000E400E0F0B581B01620FFF7C7FF394C1E
:1011C0002546103D2868C00717D12068C00712D0F7
:1011D00039480178C90702D1364948220A60216896
:1011E00001220A40226031494A68802313434B6040
:1011F0000168491C016001B0F0BD2646143E00277D
:101200003760201F0760284B196803293FD8C04664
:101210007944097949008F440119222A2349802001
:10122000086000F023FB2148001F402101600120DD
:101230001D4908602049086020461C381F4901608C
:101240001F4807701F48FF21017020E01748001F4A
:10125000016880220A4302600220186017E01348E8
:10126000016840220A430260032018600FE00F4922
:101270000A68802313430B6021461C390C4A0A601C
:101280000C4948220A60032101600748076028686A
:101290000121084028602068084020600320306059
:1012A00001B0F0BD1C710340F0F0FF1F88F00F404B
:1012B000F846090000B00340F4F0FF1F7F0400006F
:1012C00008F1FF1F09F1FF1F10B501214A02114863
:1012D0000368134303600A030368134303608A022D
:1012E000036813430360CA020368134303600A06DA
:1012F000436813434360CB0644681C434460C905FC
:1013000043680B434360343801681143016001684E
:10131000016010BD3880044070B50D460646174A7E
:10132000174B00F009FC002827D1144A154B304612
:10133000294600F0F6FB00281FD10024124B30464E
:1013400029462246FFF7E0F9104B2246FFF730FC12
:101350006D4D0F4B2A46FFF72BFC0E4B2A46FFF72D
:10136000D3F90D4B2246FFF723FC0C4B2246FFF727
:10137000CBF9FEF719FF0A49086070BDCDCCCCCC83
:10138000CCCCECBFCCCCEC3F0000F03F0000E03F09
:101390009999E93F9999B93F0070B740007097401B
:1013A0003080034070B52E49002008602D4909782F
:1013B000C90707D02C490A78120703D50A780823F1
:1013C00013430B7029492A220A70754A284911646F
:1013D00003239904274C25680D43256001210C0443
:1013E0001568254315601B0614689C430B06E3181B
:1013F00013604B02546B1C4354631F4A13681F4C09
:10140000234013605368234053601D4A9070531F5C
:1014100024241C701B4B80241C70931F9A241C7066
:101420001478A407FCD51478E406FCD4D41E2578DF
:101430001F262E402670941E2170511E08700878B9
:10144000402404430C7010784006FCD518783F21E6
:101450000140197010780C2101400C29FAD170BD9F
:101460000081044000F0074002D0074000E0074040
:10147000000001100070044048900440FFF8FFFE97
:10148000064006400050064010B51949086800069D
:1014900007D518480268521C02600868802202437F
:1014A0000A600868144A10600C39086800061DD5E7
:1014B000104A1068002313600A68802313430B60EE
:1014C000FFF7C6FC0D49FEF7E9FEFEF7BDFE0C4A2C
:1014D0000C4BFFF76DFB0C4C0C4B2246FFF768FBE7
:1014E0000B4B2246FFF740F90A4A03C210BDC04623
:1014F0000C8003400CF1FF1FF8F0FF1F0000C040FC
:101500001F85EB51B81E09409A9999999999A93F5D
:101510009999C93FA0F1FF1FF0B581B00122930254
:101520001F490C6B1C430C631E4C2378F3251D4094
:10153000257093060D681D430D6012040B6813435C
:101540000B601949194A0A604A60E61E35781F2166
:1015500000918D4316490D7016490F687843411C60
:10156000154800F0E3F9C104C90E49193170A11EF4
:10157000087000990F40E1793943E171611E002242
:101580000A70E178E1706271A27161786170A27095
:101590000A49088020780C210143217001B0F0BD78
:1015A0000480044003A006400490044000020001AF
:1015B00012F1FF1F04F0FF1F006CDC0210F1FF1F8F
:1015C000B0B58749081F026840239A430260086843
:1015D0000B22904308600868072202430A600868EB
:1015E0008022104308600846243800680006FAD5B7
:1015F00000200B685B0623D48B6A4C6AE3180C6AE4
:101600001B19CC691B198C691B194C691B195B08C8
:101610009CB20C4B5B1C1C438C608C6C4D6C2C196D
:101620000D6C6419CD6B64198D6B64194D6B641965
:101630006408A4B21C43CC600B6893430B60B0BD3C
:10164000C043B0BDFF7F0000B0B5A44800780022C1
:10165000A149841AE3B2292B04D3CB5C142B14D0F8
:10166000002300E001238418E5B2572D05D84D5D15
:10167000142D0AD0022B03D106E05B1C022B03D0F1
:10168000531C7E2A1A46E4D1B0BDE0B200F002F845
:10169000B0BDC04610B5292801460AD38E4B02467C
:1016A0000446995C282907D0641E521EE1B22929FC
:1016B000F7D257280FD802E0114657280BD8864A90
:1016C0000346145C282C06D05C1C401CDBB2562B55
:1016D0002346F6D9E0B240184008C0B210BDC0465B
:1016E00070B517490E783E2804D8864209D91549A5
:1016F000002070BD7F21891B814211DA59490020E9
:1017000070BD801BFEF795FD04460D463F20801BF3
:10171000FEF78FFD02460B460120C00745400AE058
:101720003F38FEF786FD04460D464020801BFEF73D
:1017300080FD02460B4620462946FFF715F870BD8E
:1017400008F0FF1F0000F0BF10B501200102214882
:1017500002680A43026042680A434260016802224A
:10176000114301604168114341601B4802684021F8
:101770000A430260026880231A4302600246103A5C
:1017800014681C4314600C3802680A430260134852
:1017900001680160FFF714FF401C1AD01048014691
:1017A0001C3900220A60014618390A6001462439B2
:1017B0001F230B60011F0A6001680F242140016094
:1017C0002046FFF7E7FC2046FFF7C0FC2046FFF766
:1017D000CDFC10BD18B0044094F00F4000A00440B0
:1017E00024B0034010B547480168022291430160CC
:1017F0000B4801460839464B0B60016804230B4037
:10180000036001681143016016242046FFF7C2FC03
:101810002046FFF79BFC2046FFF7A8FC10BDC04602
:1018200008710340FFF750FDFFF70CFCFFF78CFF3A
:10183000FFF7D8FF00F054F84B20C001FFF76CFE13
:1018400007480849002202604160244C064D207878
:10185000FFF746FF03C5083DFFF75EFDF7E7C0460B
:1018600098F1FF1F0000F03F00F1FF1FB0B51748CF
:10187000007817490A78801AC20F80184008097842
:101880000A1800201349D2B2134C04E01423235445
:10189000401C802804D00B5C9342F7D92823F6E73C
:1018A0007F20FF2121545720EF2222542820225448
:1018B00021700025605D00F02FF86D1C802DF9D19E
:1018C000FFF7C2FE05490870B0BDC04608F1FF1F12
:1018D00009F1FF1F13F1FF1F70F0FF1F00F0FF1F42
:1018E000084801680222914301600749074A0A60DB
:1018F000074A0A6103228A6001210160054800212C
:101900000160704700700340007103407F040000D5
:10191000FF080000F0F0FF1F03490A7852B2002AC6
:10192000FBD5C8707047C04604A0064043088B42F0
:101930001AD3002203098B4279D3030A8B425ED368
:10194000030B8B4242D3030C8B4227D30902FF22A5
:1019500012BA030C8B4202D31212090203D0030BFA
:101960008B4233D31AE0D3E0411A8041401C7047C8
:1019700003460B4371D443088B42F5D3002203097D
:101980008B4254D3030A8B4239D3030B8B421DD3B2
:10199000030C8B4202D394466EE0090AC30B8B42C0
:1019A00001D3CB03C01A5241830B8B4201D38B036B
:1019B000C01A5241430B8B4201D34B03C01A524110
:1019C000030B8B4201D30B03C01A5241C30A8B4253
:1019D00001D3CB02C01A5241830A8B4201D38B023E
:1019E000C01A5241430A8B4201D34B02C01A5241E2
:1019F000030A8B4201D30B02C01A5241CDD2C30954
:101A00008B4201D3CB01C01A524183098B4201D3CF
:101A10008B01C01A524143098B4201D34B01C01ABA
:101A2000524103098B4201D30B01C01A5241C30832
:101A30008B4201D3CB00C01A524183088B4201D3A1
:101A40008B00C01A524143088B4201D34B00C01A8D
:101A50005241411A524110007047CA0F00D049420A
:101A6000031000D34042534000229C4603098B429E
:101A70002DD3030A8B4212D38901FC2212BA030A26
:101A80008B420CD3890192118B4208D389019211A8
:101A90008B4204D3890137D0921100E08909C30930
:101AA0008B4201D3CB01C01A524183098B4201D32F
:101AB0008B01C01A524143098B4201D34B01C01A1A
:101AC000524103098B4201D30B01C01A5241C30892
:101AD0008B4201D3CB00C01A524183088B4201D301
:101AE0008B00C01A5241D9D243088B4201D34B001C
:101AF000C01A5241411A00D2014652411046634673
:101B00005B1000D34042704763465B1000D34042F5
:101B100001B50021004201D0C9430846C046C04675
:101B200002BD10B500F014F8EFF300804000800F04
:101B3000012800D0002010BD10B500F03BF8EFF3F5
:101B40000080800001D4012010BD002010BD0000E5
:101B500070B501252D050C001C4310D4EC4206D4B1
:101B6000AC420AD4994200D070BD904270BDE942A7
:101B700017D4EB4215D4994270BD894270BDEC4236
:101B800006D5AC42F9D58B4200D070BD824270BD03
:101B90006D004C00EC4204D25C00EC4201D28B425E
:101BA00070BD034C30B4FFF757F930BC70BD00BFB7
:101BB0001900130470B501252D050C001C4310D429
:101BC000EC4206D4AC420AD4994200D070BD904297
:101BD00070BDE94217D4EB4215D4994270BD8942D9
:101BE00070BDEC4206D5AC42F9D58B4200D070BD39
:101BF000824270BD6D004C00EC4204D25C00EC42AD
:101C000001D28B4270BD034C30B4FFF725F930BCD4
:101C100070BD00BF1900160480807F7E7D7C7B7ABA
:101C20007978777676757473727171706F6E6E6D88
:101C30006C6C6B6A6A69686867666665646463632E
:101C400062616160605F5F5E5E5D5D5C5C5B5B5AB4
:101C50005A59595858575756565555555454535321
:101C600052525251515050504F4F4F4E4E4D4D4D7C
:101C70004C4C4C4B4B4B4A4A4A49494948484847C7
:101C80004747474646464545454444444443434305
:101C90004342424242414141818283848586878812
:101CA000898B8C8D8E8F919293959697999A9C9D06
:101CB0009FA0A2A3A5A7A8AAACAEB0B2B3B5B7B96E
:101CC000BCBEC0C2C5C7C9CCCED1D4D7D9DCDFE237
:101CD000E6E9ECF0F3F7FAFEF81C000000F0FF1F55
:101CE0000C00000004010000041D000010F0FF1FA4
:101CF00098020000200100003F0000000F000000DB
:041D00001E000000C1
:040000050000016591
:00000001FF
