:020000040000FA
:1000000058F2FF1F650100006F0100007101000040
:1000100000000000000000000000000000000000E0
:10002000000000000000000000000000730100005C
:1000300000000000000000007501000077010000D2
:1000400079010000790100007901000079010000C8
:1000500079010000790100007901000079010000B8
:1000600079010000790100007901000079010000A8
:10007000790100007901000079010000D90F00002A
:1000800079010000790100007901000019150000D4
:1000900079010000790100002911000079010000B8
:1000A0007901000079010000790100007901000068
:1000B0007901000079010000411200008D1200005A
:1000C00000F002F800F03EF80CA030C80838241800
:1000D0002D18671EA246AB4654465D46AC4201D180
:1000E00000F030F87E460F3EB6460FCC0126334274
:1000F00000D0FB1A3343A246AB46184780220000CB
:10010000A0220000103A02D378C878C1FAD852076A
:1001100001D330C830C101D504680C6070470000BD
:100120000023002400250026103A01D378C1FBD813
:10013000520700D330C100D50B6070471FB51FBDFB
:1001400010B510BD00F03DF91146FFF7F7FF01F0C3
:10015000F5FC00F0D3FE03B4FFF7F2FF03BC00F0A0
:1001600033FF00000848804762B608480047FEE7B2
:10017000FEE7FEE7FEE7FEE70548004705480649BB
:10018000044A064B7047000035140000C10000000F
:100190007901000058F1FF1F58F2FF1F58F1FF1FAF
:1001A00070477047704700000246C80FC007814380
:1001B0004B0030B54B405B009B0D20D01923DB0674
:1001C000C91801231B05994220DB0324A407042539
:1001D0001346AB400BD3002B04D1EB0613409B001E
:1001E000E34204D401246407002312195941FF2378
:1001F0001B0599420BD2C9000143500F09E0CB0205
:1002000004D501430803024305D0054830BDFF2152
:10021000C905084330BD084607210905884330BD9C
:100220000000C07F0346CA02400D10B510430A15F6
:1002300004D00124E4072043002A05DB0A4CA21A5B
:1002400004D4D040FF2A00DD002010BD4A00002B5E
:1002500001D0012000E00020101801225205D042F8
:10026000F2D8C817C04310BD1E0400001F22030CA3
:1002700002D10F22000402D0030E03D004E00020BC
:10028000014670470002083A030F01D10001121F16
:10029000830F01D18000921E002801DB4000521E16
:1002A000120551184205C012411810467047C10F7F
:1002B000C90700D04042012292071143D6E701212D
:1002C0008907D3E70121C9050123411842001B0614
:1002D000D3185B0E0AD0C1100722D2068918400736
:1002E0005242D14201D5520089187047090208D5FF
:1002F0000146002A03D0C10FC907002070471046ED
:100300007047420202D000200249704707210905C8
:100310000143F4E70000F87F10B501469E24000277
:10032000CA15A307002A02D01843002A04DBA21A28
:10033000002A0CDDD04010BD1206120E01D1400083
:100340004008A21A03D4D04040420028F3DDFF2227
:1003500048001206904201D9002010BDC817C043C2
:10036000584010BD1F22030C02D10F2200041CD0E4
:10037000030E01D10002083A030F01D10001121F40
:10038000830F01D18000921E002801DB4000521E25
:10039000D2055118021251181922904004D3491C59
:1003A000002801D14908490008467047C10FC90714
:1003B00000D04042012292071143D3E7012189076F
:1003C000D0E7754600F0CCFDAE46050069465346C1
:1003D000C008C000854618B020B5FFF7CFFE60BC4E
:1003E000B64600260027C0C5C0C5C0C5C0C5C0C52B
:1003F000C0C5C0C5C0C5403D490849008D467047CD
:10040000FFFFFFFFFFFFFFFFFFFFFFFFFEFFFFFFFD
:10041000F0B50C46871A9C410D46861A9D4103D2C1
:10042000C01BA141D21963410D0D1F0DC94EEC1B1C
:10043000AE435CD07F057F0D0026002F51D02D05E7
:10044000AC46A943DD020123ED0A1B051D43202311
:100450001B1B24D41746E740381871412F46E7404C
:10046000CC199D402818314661410C0D27D16144BB
:100470009A4013D50023401C594152000ED1400828
:10048000400001224B005205D34207D3052040070C
:10049000C14201D5B04900E0B0493046F0BD6B0023
:1004A000002A00D001229A181F23203C1B1B01D5D3
:1004B000002302E0E540281871410C0DD7D001243B
:1004C00024050919C407CD0740084908E40F28434B
:1004D0006144002CD5D00024401C61419A40D0D109
:1004E000CDE76A05520DD9D1C90FC907D5E79C4D93
:1004F0004E00002801D0012400E0002434195F00E0
:10050000002A01D0012600E00026BE19954FAC421A
:100510000CD8AE420AD8B44206D001256D05EC4293
:10052000BCD010461946F0BD9942FCD00020394697
:10053000F0BDF0B51FB40C460F46811A9F41254609
:10054000861A9D4106D20125ED076F40401ABC4135
:1005500052187B41210D1E0D8D1BAC467D4D8D43E8
:100560007ED075056D0D7CD00D05AE46AC431B03EA
:100570001B0B794D52429D41202366469B1B14D391
:100580001746F740381800260090744160462F4601
:100590000741E41900989D402818664116D4714619
:1005A00071189A4025D5012320E093182A466A4104
:1005B0005200002B00D0521C1E23203E9B1B002B00
:1005C00061DD3541EE1728186641E8D500187641FF
:1005D0005B1C9A4000D3401C4B05F3181524E340E4
:1005E00010D3002B52D071467118D30FC01802D30C
:1005F000491C05B0F0BD0123DB079A42F9D1400840
:100600004000F6E701225205B21801D1002853D06C
:100610000123CC0ADB029943891E002A08D1020C6F
:1006200003D0020C0004103902E0024600202039F9
:100630000023550B05D112020823550B01D152019D
:100640000D23550C01D112011B1DD50C01D19200B7
:100650009B1C150D01D152005B1C2025EE1A01E0F8
:100660002CE022E00546F54015439840CA1AE10700
:1006700069181305C918002ABBDA032040070818B7
:10068000C10FC9070FE071466118B2E7F1074008D2
:100690000843711071444A000CD001235B059A4253
:1006A000A7D2C90FC9070020A3E74905490D26D1E4
:1006B000002001E00028F4D100219AE7284D6600CF
:1006C000002801D0012100E0002171185F00002AFC
:1006D00001D0012600E00026BE19224FA94210D801
:1006E000AE420ED8B14208D001256D05E94206D0D0
:1006F0001946A802414010467BE79C4201D02146A2
:1007000077E70020394674E710B50C465C4005D504
:100710000124E4076340FFF70CFF10BDFFF778FEEC
:1007200010BD30B40C465C4004D50124E40763409E
:1007300030BC6DE630BCFCE670B50124E4076140D6
:100740000D465D4002D4FFF763FE70BD6340FFF7C6
:10075000F0FE70BDFF0700000000F0FF0000F07F1A
:100760000000E0FF0000F87FF0B5F94D0C091E090C
:100770002C402E402F468BB0A7437DD0B543FCD0F4
:10078000002E7AD0002CFCD00D465D40ED0F2543A5
:10079000AC1BFF25AD0464190894C502440DC902C1
:1007A0002143500DDC0204430120C00701430443F0
:1007B000D2020191200C110C00958C4601042346B5
:1007C0008B430A9161460904E24D8A430991010A6B
:1007D0007D4449198039097805464D4301266D1835
:1007E000F605751B6943C90C640B891C4C436418DE
:1007F000B5012C1B250C2E04B4434C434D43210C56
:10080000691889090591009DE90701D00121C907EF
:1008100004912C4601996708CD072F434C08059D8C
:10082000E10B4D432D0C29466646754302950D4656
:1008300045432E46029D7D1BB44100950D465D4308
:1008400001942C0C2F040D465543AE462D0C3D4310
:10085000029503947546049C2D04641B049406D2EF
:10086000029C039D641C002675410395029401AC13
:1008700070CC009F7D1B01E03EE162E1B4410904C0
:100880000095079101940599A4086143090C0C4651
:100890004443650BE7040C4666467443A646640B66
:1008A0003C43039502947446049DE4042C1B049479
:1008B00006D2029C039D641C002675410395029498
:1008C00001AC70CC009F7D1BB44101940C465C438D
:1008D0000095650FE7000C465443A646640F3C4361
:1008E000039502947446049DE4002C1B049406D2E4
:1008F000029C039D641C002675410395029401AC83
:1009000070CC009F7D1BB441AE09AF06049DC900A9
:10091000AD092F43049DA406AD060495079D3443FD
:1009200069180791059DE10B4D432D0C294666463C
:10093000754302950D4645432E46029D7D1BB441ED
:1009400000950D465D4301942C0C2F040D46554334
:10095000AE462D0C3D43029503947546049C2D0430
:10096000641B049406D2029C039D641C00267541FE
:100970000395029401AC70CC009F7D1BB44101949F
:100980008C050694079C890A611800950791019CC3
:100990000599A4086143090C0D464543680BEF0413
:1009A0000D46644665436C0B3C43049FED047D1B80
:1009B000AC4602D20025641C6841009E019D371B95
:1009C00085410846584301950C46460FC5005443DF
:1009D000600F28436546E4002C1B02D20025401C12
:1009E0006E41019D3F1AB5412846BD098006284346
:1009F0008446A009BF064E020699A406761807434E
:100A0000079D002068410A99079019430020099B1F
:100A100000906046FF1913434041E20F64003A43DF
:100A2000A4460446D71A8C41A04203D90120009065
:100A300020463A46C70F941840416246D20F2243DF
:100A4000644664000494009CBE466400D71AA44621
:100A5000044602978C417746002F01D1A04204D969
:100A60006046401C8446029A2046C40FA64694184D
:100A70004041049A0546D20F224364466400D31ACB
:100A80008D417146002901D1A84202D928461A4653
:100A9000641C10430122002800D01643610200208C
:100AA000079B891904465C410223002C02DB49188C
:100AB00013466441089DCE0A2D145D194B05670548
:100AC000E10A2C050D1908993E43C9076940002B1E
:100AD00008D0934006D30022761C5141002B01D14F
:100AE000760876001C4A002D43DB154241D0AA430C
:100AF0003FD030460BB0F0BD06180D464D41174CA7
:100B00007642AC411AD395181C465C41134A6D429B
:100B1000A24113D3012252054C00D4420AD15C00F9
:100B2000D4420BD04B4002D592021143E2E7490078
:100B30004908DFE75940C90FC90718E000200849F4
:100B4000D8E7054801420DD10342F7D0F2E7000093
:100B50000000FF07281B00000000F07F0000E0FFFE
:100B60000000F87F114859400143C0124140002065
:100B7000C0E70123089A9B069A4205DC032252072C
:100B80008918C90FC907B5E7052252078918074A0E
:100B90001143D2125140ADE770B515461C460246CE
:100BA0000B4628462146FFF7DFFD70BDFFFFFF7FA4
:100BB000F0B58B4C0F09254689B0BD437BD01D098C
:100BC0002646AE43FAD00E465E402740F60F3E431F
:100BD000254071D024012142FBD0FF24AD19A4048B
:100BE0002D1B039501252D05DB02DB0AC9022B43D2
:100BF000C90A29431E010901040F130F05012143EE
:100C00001701880B820391432D098C46A90B1E43C3
:100C10008A039543B30B9A0396433F09BA0B940397
:100C2000A74302962E467E430497B6464E19D7191F
:100C30000C460196544305977E43371B7646BF1BEF
:100C40003601B646BE0B361900967646BC043719F7
:100C5000009C01D3641C00946400002F01D0012685
:100C60003443029E049F754366467E430496760095
:100C700034196E0034190094029C019E1C196643BD
:100C8000751BAE46069465464519059C05956C4353
:100C9000594375460891691A0191049E01465143D2
:100CA000A41B0491611A009C0791E10605D061091B
:100CB0000122114302E072E06EE06109089D002705
:100CC0002C0A2D066918049D7C412A0A2D066918F4
:100CD000019D6241AC0DAD026D185441079A910D12
:100CE000920255196141029A644658435443069B47
:100CF000059A5A43121A131B9A0E9B015B187A41EC
:100D0000010B0005C3185141220A200644195A411B
:100D10009A4200D2491C01204002814203D315238C
:100D20000226F64302E014230326F6432020C51AC8
:100D3000A9401746AF40DA400A4320460399D840FD
:100D40000914731819055118039A3843D2075140F2
:100D5000AC4009D00122944006D30022401C5141EE
:100D6000002C01D1400840001E4A934212D30122B8
:100D700003989206904207DB0520400709181A489D
:100D80000143C012414004E0032040070818C10F8E
:100D9000C907002009B0F0BD0020F107FAE70518E7
:100DA0000C464C4111486D42A04115D394181A4687
:100DB0005A410E48644290410ED301204A0040053A
:100DC000824209D35A00824206D35940C90F084AC9
:100DD000C90700201143DDE700200649DAE70000DB
:100DE0000000FF07FE070000FFFFFF7F0000E0FF9D
:100DF0000000F07F0000F87FF8B5264C4E00069DFD
:100E0000A6420AD8A64201D1002806D15E00A64219
:100E100003D8A6420AD1002A08D00D242404254272
:100E200033D02946002000F071F8F8BD0C461C4371
:100E300011D4994207D0C81A02D3EFF30080F8BD4D
:100E4000EFF30080F8BD801A02D3EFF30080F8BD05
:100E5000EFF30080F8BD09242407E5008B4207D09A
:100E6000581A02D3EFF3008006E0EFF3008007E0AA
:100E7000101A03D3EFF30080A04303E0EFF30080E8
:100E8000A043284380F30088F8BD009500F056F891
:100E9000F8BD00000000E0FF10B5FF231B06440072
:100EA0009C421DD84C009C421AD80346124A0B4360
:100EB00007D4401A02D3EFF3008010BDEFF3008097
:100EC00010BD081A03D3EFF30080904305E0EFF361
:100ED000008001219043C907084380F3008810BDBA
:100EE0000D231B041A4204D01146002000F00EF816
:100EF00010BD00F02DF810BD0000009010B50446A4
:100F0000C046C0462046FFF726F910BDC80212D5DC
:100F10004803400F002804D0C803C0430121884083
:100F20007047EFF30080000100090321090708431F
:100F300080F30088704700207047000010B5002043
:100F40000249029A00F010F810BD00000000F87F7E
:100F500010B5024800F008F810BD00000000C07F86
:100F60000048704720F0FF1F10B50C461107090F0D
:100F7000092904D00A290AD008290CD104E0114615
:100F80000820FFF7C3FF06E0510606D501E0510631
:100F900001D50120C007214610BDD10607D50101AA
:100FA0000909CC084907000E0006044309E0410F77
:100FB00020024907000A0143200E00061D22D141EC
:100FC00001430846E7E7000001491820ABBEFEE7F1
:100FD0002600020070470000B0B592480168402228
:100FE00091430160006992490A68FF2A15D80A688E
:100FF0003E2A12D30A68C12A0FD80A685208074B42
:1010000098548E4A14780D686D085B5D9C4204D933
:1010100009684908844B19701070B0BDC9F0FF1FF2
:1010200070B50120820236490B1F1C6814431C60F6
:1010300003221202334B1C6814431C6004020D6827
:1010400025430D604D6825434D60CD682543CD6037
:10105000DC691443DC610A6802231A430A604A68A7
:101060001A434A60CA681A43CA60274A13680821AB
:101070000B43136013680424234313601368202573
:101080002B4313601346103B1E680E431E601E6800
:1010900026431E600C3A13682B4313601B4A1368E7
:1010A00005261E4316601A4B1E6826431E60EC433D
:1010B0001568254015601D6825401D60002454609A
:1010C000144D95605C60144D9D602825DD60D561F0
:1010D0005561C006114D2E6806432E60092000069A
:1010E0000F4D2E6806432E600E48186114629461FD
:1010F00010680843106018680843186070BDC04647
:1011000008C0044014900440D4F00F400080034015
:1011100000900340A08C000060EA0000848003403F
:101120008490034094110000F0B501208105754AB8
:10113000116038490A46103A1368DB0715D10A686E
:10114000D20711D03A4A1368DB0702D1354B482445
:101150001C600B6803400B603048416880230B43E0
:1011600043601068401C1060F0BD0B46143B002526
:101170001D600E1F3560284C2768032F40D8C046DD
:101180007F443F797F00BF440119212A234C8026E8
:101190002660254E3678254F3E70241F4026266057
:1011A000234C20601C4C20600C461C3C214E2660C9
:1011B000214C2570214CFF25257021E0174C241F60
:1011C000256880262E432660022405E0134C2568FE
:1011D00040262E43266003240F4D2C6010E00F4C58
:1011E000276880243C430D4F3C600C461C3C0C4F50
:1011F00027600C4C4827276003243460064C256088
:101200001468044014600A6802400A6003201860F1
:10121000F0BDC0461C71034080F0FF1F88F00F40F6
:10122000F846090000B0034019F0FF1F18F0FF1F37
:1012300084F0FF1F7F04000088F0FF1F89F0FF1F6C
:1012400070B5012188072F4A10602F4800680D4CA7
:101250002268920314D54D04FFF731F82C4A2D4B28
:10126000FFF7A6FC084E71603060206828432060BC
:1012700030687168294A2A4BFFF746FA716030607E
:1012800070BDC046A090044000F0FF1F70B5012063
:10129000C007F34908601C4804681C4D28684006D4
:1012A00015D52046FFF70BF8194A1A4BFFF780FCBB
:1012B000194E716030602868402101432960306810
:1012C0007168164A164BFFF71FFA71603060286884
:1012D000000615D52046FEF7F2FF0D4A0D4BFFF72D
:1012E00067FC104C61602060286880210143296000
:1012F00020686168094A0A4BFFF706FA61602060BE
:1013000070BDC04680E200E004800340A0C00440FD
:101310007C2C7DE882FA863F10F0FF1F3333333395
:10132000333320C008F0FF1F10B501214A021748CF
:101330000368134303600A030368134303608A02CC
:10134000036813430360CA020368134303604A033C
:101350000368134303600A064368134343604B0664
:1013600044681C4344608B0644681C434460CB06BD
:1013700044681C434460C90543680B4343603438E8
:101380000168114301600168016010BD38800440AC
:10139000F0B581B00E4607460022134600F04FFD1F
:1013A000002801D001B0F0BD1A4C1B4D3846314623
:1013B00022462B4600F059FD0028214600D139462F
:1013C000002800D13546154E08460F4629462246CC
:1013D000334600F03FFD002800D13C46002800D1F4
:1013E0002E4600250E4B204631462A46FFF78CF943
:1013F0000C4B2A46FFF7DCFB0B4B2A46FFF7D8FBCA
:101400000A4B2A46FFF780F9FEF70CFF08490860EF
:1014100001B0F0BD9A9999999999D9BF9999D93FF5
:101420000000F03F0000E03F0070B74000709740C0
:101430001090034070B52E49002008602D490978AE
:10144000C90707D02C490A78120703D50A78082360
:1014500013430B7029492A220A70B34A28491164A0
:1014600003239904274C25680D43256001210C04B2
:101470001568254315601B0614689C430B06E3188A
:1014800013604B02546B1C4354631F4A13681F4C78
:10149000234013605368234053601D4A9070531FCC
:1014A00024241C701B4B80241C70931F9A241C70D6
:1014B0001478A407FCD51478E406FCD4D41E25784F
:1014C0001F262E402670941E2170511E0870087829
:1014D000402404430C7010784006FCD518783F2156
:1014E0000140197010780C2101400C29FAD170BD0F
:1014F0000081044000F0074002D0074000E00740B0
:10150000000001100070044048900440FFF8FFFE06
:101510000640064000500640F0B583B00126F004B6
:101520004F4908604F4C6069000607D54E48018856
:10153000491C0180606980210143616120680006C7
:1015400000D48AE048480088FEF738FF474900F099
:1015500015FE474D28602868464900F00FFEFEF74B
:10156000DBFE00F067FB2068802101432160424FD1
:1015700038680024214600F083FC002805D0286844
:10158000214600F07DFC002807D139682A683B48D5
:1015900003683B4800F032F90446384F3C607F2036
:1015A000C4053868214600F081FC002800D13C6069
:1015B00002943868334C214600F06DFC002800D1BD
:1015C0003C6038680025294600F065FC2E4900285B
:1015D00007D10868202202430A60F10738684840B2
:1015E00004E04868202202434A603868FEF76AFE39
:1015F00007460E462A462B4600F037FC00282C46AC
:1016000000D13C460028294600D131461F4E204FCC
:101610002046019132463B4600F01CFC002800D1D8
:101620002646002800D1019F1A4B304639462A46EB
:10163000FFF7BEFAFEF7F6FD1749886008600A4812
:1016400005800E480068029900F0D4FC134900F0B0
:1016500095FDFEF761FE00F0EDFA03B0F0BDC04667
:1016600080E200E000A003408AF0FF1F7B5B563E53
:1016700050F1FF1F000020414CF1FF1FC4F0FF1F7D
:1016800090F0FF1F000080BFC4F00F40CDCCCCCC49
:10169000CCCCEC3F0094E140188003400000C842ED
:1016A000F0B581B0012293021F490C6B1C430C63FF
:1016B0001E4C2378F3251D40257093060D681D43AD
:1016C0000D6012040B6813430B601949194A0A6034
:1016D0004A60E61E35781F2100918D4316490D7032
:1016E00016490F687843411C154800F0ADFAC10453
:1016F000C90E49193170A11E087000990F40E17997
:101700003943E171611E00220A70E2706271A271B8
:1017100061786170A2700B49088020780C21014328
:10172000217001B0F0BDC0460480044003A0064013
:101730000490044000020001C8F0FF1F1CF0FF1FCE
:10174000006CDC02C0F0FF1FB0B57649081F0268CC
:1017500040239A43026008680B229043086008689F
:10176000072202430A600868802210430860084686
:10177000243800680006FAD500200B685B0623D4E5
:101780008B6A4C6AE3180C6A1B19CC691B198C69AB
:101790001B194C691B195B089CB20C4B5B1C1C434E
:1017A0008C608C6C4D6C2C190D6C6419CD6B6419AC
:1017B0008D6B64194D6B64196408A4B21C43CC6032
:1017C0000B6893430B60B0BDC043B0BDFF7F00000A
:1017D00010B50F38FEF76BFD0024064B2246FEF7CE
:1017E000C3FF02460B46FEF78FFF034B2246FEF770
:1017F0008BFF10BD008058400000F0BFF0B587B0EF
:1018000004930546406A0690E862286A0590A8623B
:10181000AF692F62EC696C620846114600F006FD64
:10182000FEF750FD06460191A861E961AA68EB68E0
:1018300038462146FFF7BCF9039002910498FEF761
:1018400041FD04460F4603CD3246019B083DFFF79C
:10185000AFF922463B46FEF757FF039A029BFEF77D
:1018600053FF04460E462A696B6905980699FFF7EF
:101870009FF902460B4620463146FEF745FFFEF72C
:1018800093FC07B0F0BD0000B0B50124210222484E
:1018900002680A43026042680A4342600168022209
:1018A000114301604168114341601C4802684021B6
:1018B0000A430260026880231A4302600246103A1B
:1018C00015681D4315600C3802680A43026014480D
:1018D00001680160FFF738FF401C1CD01148014629
:1018E0001C3900220A60014618390A600146243971
:1018F0001F230B60011F0A6001680F220A4002606B
:10190000FF20000608490A6882430A60E00389490B
:10191000086089490860B0BD18B0044094F00F40D9
:1019200000A0044024B003400CE400E0F0B589B00E
:101930001F460493044600258561C5610562456222
:101940008562C56212980690139905911646039216
:10195000FEF70AFF0890079120616161109A119BC0
:1019600030463946FFF724F9174B2A46FFF720F98E
:1019700006460F460E9D0F9B02932A46FEF7D1FEA8
:10198000019000910698059902460B46FEF7BCFEB1
:10199000039A049BFEF7E8FE02460B460198009965
:1019A000FEF7BFFEA060E160304639462A46029B42
:1019B000FEF7AAFE02460B4608980799FEF7A4FE1A
:1019C00003C409B0F0BDC0460000E03F9448016880
:1019D0000222914301600C4801460839934B0B6089
:1019E000016804230B400360016811430160FF207C
:1019F000000406490A6882430A60012080054D49B7
:101A000008604D49086070470871034014E400E025
:101A10000320000218490A6802430A60086802228B
:101A200002430A601548016807220A430260016800
:101A3000202291430160016840220A430260002194
:101A400041600F498160052149060E4A13680B4326
:101A5000136048214161FF2109060B4A13688B433B
:101A600013600121C904334A1160334A11600168CF
:101A700008220A43026070470CA0044000A0034003
:101A80001BB7000084A0034010E400E0B0B50120C3
:101A9000820224490C46083C2368134323602268D1
:101AA00002231A43226004020A6822430A604A6839
:101AB00022434A601C4A1568254315600C681C4384
:101AC0000C604C681C434C6014681C431460052374
:101AD0005B040C681C430C604C681C434C60116830
:101AE0001943116011490A6808239A430A602822A1
:101AF000CA620F220A630A681A430A60FF210A04B5
:101B00000B4B1C6894431C6082070A4C22600A4DF0
:101B10002A6009061A688A431A60C0072060286094
:101B2000B0BDC04618C0044044900440008003404B
:101B30001CE400E080E200E000E100E092B0244814
:101B40000590244904910390029123480190234871
:101B50000090FF20830506AC00222046FFF7E6FE3A
:101B60001F482ECC2EC02ECC2EC02ECC2EC0FFF760
:101B7000DBFBFFF755FAFFF787FEFFF727FFFFF7BD
:101B800047FFFFF783FF00F039F81648FFF788FD9D
:101B900015491648164E184F164C0D4602E02760A0
:101BA00012482946FFF7F4FB307801463E39C9B2A6
:101BB0000329F4D97F21C90502463A3AD2B20B2A49
:101BC0000A4600D83A4622602160FFF701FEE9E7A5
:101BD0009999993F9A9999993D0AB73F0AD7A37065
:101BE00090F0FF1FAC26000085EBB1BFEC51B81E92
:101BF00018F0FF1F4CF1FF1F00004040084801682B
:101C00000222914301600749074A0A60074A0A61B4
:101C100003228A60012101600548002101607047AC
:101C200000700340007103407F040000FF080000C3
:101C300080F0FF1F03490A7852B2002AFBD5C87012
:101C40007047C04604A0064043088B421AD30022C6
:101C500003098B4279D3030A8B425ED3030B8B4279
:101C600042D3030C8B4227D30902FF2212BA030C82
:101C70008B4202D31212090203D0030B8B4233D3DF
:101C80001AE0D3E0411A8041401C704703460B43E1
:101C900071D443088B42F5D3002203098B4254D3FD
:101CA000030A8B4239D3030B8B421DD3030C8B42A7
:101CB00002D394466EE0090AC30B8B4201D3CB03D7
:101CC000C01A5241830B8B4201D38B03C01A52417D
:101CD000430B8B4201D34B03C01A5241030B8B427F
:101CE00001D30B03C01A5241C30A8B4201D3CB026A
:101CF000C01A5241830A8B4201D38B02C01A52414F
:101D0000430A8B4201D34B02C01A5241030A8B4251
:101D100001D30B02C01A5241CDD2C3098B4201D369
:101D2000CB01C01A524183098B4201D38B01C01AE7
:101D3000524143098B4201D34B01C01A524103095E
:101D40008B4201D30B01C01A5241C3088B4201D30D
:101D5000CB00C01A524183088B4201D38B00C01ABA
:101D6000524143088B4201D34B00C01A5241411AE1
:101D7000524110007047CA0F00D04942031000D3EF
:101D80004042534000229C4603098B422DD3030A54
:101D90008B4212D38901FC2212BA030A8B420CD364
:101DA000890192118B4208D3890192118B4204D38D
:101DB000890137D0921100E08909C3098B4201D310
:101DC000CB01C01A524183098B4201D38B01C01A47
:101DD000524143098B4201D34B01C01A52410309BE
:101DE0008B4201D30B01C01A5241C3088B4201D36D
:101DF000CB00C01A524183088B4201D38B00C01A1A
:101E00005241D9D243088B4201D34B00C01A5241F0
:101E1000411A00D201465241104663465B1000D37E
:101E20004042704763465B1000D3404201B5002139
:101E3000004201D0C9430846C046C04602BD10B5A5
:101E400000F042F8EFF30080400001D5012010BD02
:101E5000002010BD10B500F069F8EFF300804000DD
:101E6000800F012800D0002010BD10B500F090F8C0
:101E7000EFF30080800001D4012010BD002010BDD0
:101E800010B500F0FDF8EFF30080400001D501200F
:101E900010BD002010BD10B500F01CF9EFF300805C
:101EA000800001D5012010BD002010BD10B500F04C
:101EB0003BF9EFF300804000800F012801D00120A2
:101EC00010BD002010BD000070B501252D050C00CF
:101ED0001C4310D4EC4206D4AC420AD4994200D040
:101EE00070BD904270BDE94217D4EB4215D49942BF
:101EF00070BD894270BDEC4206D5AC42F9D58B422B
:101F000000D070BD824270BD6D004C00EC4204D226
:101F10005C00EC4201D28B4270BD034C30B4FEF742
:101F20006BFF30BC70BD00BF1900120470B50125F5
:101F30002D050C001C4310D4EC4206D4AC420AD44C
:101F4000994200D070BD904270BDE94217D4EB4277
:101F500015D4994270BD894270BDEC4206D5AC42A1
:101F6000F9D58B4200D070BD824270BD6D004C002F
:101F7000EC4204D25C00EC4201D28B4270BD034CB7
:101F800030B4FEF739FF30BC70BD00BF1900130438
:101F900070B501252D050C001C4310D4EC4206D46D
:101FA000AC420AD4994200D070BD904270BDE94263
:101FB00017D4EB4215D4994270BD894270BDEC42F2
:101FC00006D5AC42F9D58B4200D070BD824270BDBF
:101FD0006D004C00EC4204D25C00EC4201D28B421A
:101FE00070BD034C30B4FEF707FF30BC70BD00BFBE
:101FF0001900160470B50125ED0704004C4020D4EB
:10200000441A01D2001B0919C60D4B00F2B2FF2A77
:1020100029D01B0E2CD000020C0228432C43D31ACB
:10202000DC40051910D2280A02D3401C6D0611D0DD
:10203000761EF6058019FF2A00DA70BDC00DC005B6
:1020400070BD694000F0F8F801200543C541521CFD
:10205000761CE8E764089C40C90161408900E7D12B
:102060000124A043E4E71B0E440200D0034870BDE6
:10207000002AFCD1C00FC00770BD00BF0000C07FA8
:102080000123DB0502000A430DD4DA4203D49A424D
:1020900007D488427047D84214D4D94212D4884217
:1020A000704780427047DA4203D59A42F9D581429F
:1020B00070475B004200DA4204D24A00DA4201D2A1
:1020C0008142704710B5024AFEF7E6FE10BD00BF20
:1020D000090012040123DB0502000A430DD4DA4291
:1020E00003D49A4207D488427047D84214D4D942C4
:1020F00012D48842704780427047DA4203D59A4230
:10210000F9D5814270475B004200DA4204D24A00AE
:10211000DA4201D28142704710B5024AFEF7BCFE96
:1021200010BD00BF090013040123DB0502000A43B0
:102130000DD4DA4203D49A4207D488427047D84279
:1021400014D4D94212D48842704780427047DA4290
:1021500003D59A42F9D5814270475B004200DA42CA
:1021600004D24A00DA4201D28142704710B5024AD5
:10217000FEF792FE10BD00BF0900160470B54200C4
:1021800064414B005C41120E39D01B0E38D0FF2A3F
:102190003CD0FF2B3AD0D2187F3A40024902400A85
:1021A000490A4518ED0106004E43000A090A484352
:1021B0000104731A4019190C4318990F04D05B08D5
:1021C000012149075B1A521CD80904D3401CF503AE
:1021D00001D19D0607D0FF2A08D2D50506D0E40715
:1021E0002043401970BD0125A843F4E7002A01DC13
:1021F000E00770BD2402FF202043C00570BD1B0E08
:10220000FF2A03D0FF2B01D0E00770BDFF26360662
:102210004500B54206D84D00B54203D8D218FF2A72
:1022200000D0E7E7004870BD0000C07F70B5012511
:10223000ED0704004C4022D4441A02D26C40001B2B
:102240000919C60D4B00F2B2FF2A4BD01B0E50D01D
:1022500000020C02A8432C43D31ADC40051B05D511
:10226000AD0019D36D08761E521E37D0F605280A28
:1022700001D2801970BD70416D0603D070BD6940F8
:10228000FFF7BEFE9C4009026140490001D0401E9C
:1022900070BD0124A04370BD6D081DD001202B0C22
:1022A00001D12D0410302B0E01D12D0208302B0F3F
:1022B00001D12D01001DAB0F01D1AD00801CEB0F32
:1022C00001D16D00401C361A121A6D00680AF5051E
:1022D0004019012A02DB70BD002070BDC036300AF3
:1022E000C00770BD1B0E440201D1FF2B00D1024874
:1022F00070BD002AF0D070BD0000C07F80807F7E5E
:102300007D7C7B7A7978777676757473727171706B
:102310006F6E6E6D6C6C6B6A6A696868676666651D
:102320006464636362616160605F5F5E5E5D5D5CAB
:102330005C5B5B5A5A59595858575756565555551C
:102340005454535352525251515050504F4F4F4E7C
:102350004E4D4D4D4C4C4C4B4B4B4A4A4A494949CA
:10236000484848474747474646464545454444440C
:10237000444343434342424242414141A02300007F
:1023800000F0FF1F2000000004010000C023000037
:1023900020F0FF1F380200002001000000000000B4
:1023A00000000000000059400000000000005940FB
:1023B00000000000000059403F3F00000F000000F7
:040000050000016591
:00000001FF
